{
  "_format": "hh-sol-artifact-1",
  "contractName": "OnePieceMint",
  "sourceName": "contracts/OnePieceDapp.sol",
  "abi": [
    {
      "inputs": [
        {
          "internalType": "address",
          "name": "vrfCoordinatorV2Address",
          "type": "address"
        },
        {
          "internalType": "uint64",
          "name": "subId",
          "type": "uint64"
        },
        {
          "internalType": "bytes32",
          "name": "keyHash",
          "type": "bytes32"
        },
        {
          "internalType": "uint32",
          "name": "callbackGasLimit",
          "type": "uint32"
        }
      ],
      "stateMutability": "nonpayable",
      "type": "constructor"
    },
    {
      "inputs": [
        {
          "internalType": "address",
          "name": "have",
          "type": "address"
        },
        {
          "internalType": "address",
          "name": "want",
          "type": "address"
        }
      ],
      "name": "OnlyCoordinatorCanFulfill",
      "type": "error"
    },
    {
      "anonymous": false,
      "inputs": [
        {
          "indexed": true,
          "internalType": "address",
          "name": "owner",
          "type": "address"
        },
        {
          "indexed": true,
          "internalType": "address",
          "name": "approved",
          "type": "address"
        },
        {
          "indexed": true,
          "internalType": "uint256",
          "name": "tokenId",
          "type": "uint256"
        }
      ],
      "name": "Approval",
      "type": "event"
    },
    {
      "anonymous": false,
      "inputs": [
        {
          "indexed": true,
          "internalType": "address",
          "name": "owner",
          "type": "address"
        },
        {
          "indexed": true,
          "internalType": "address",
          "name": "operator",
          "type": "address"
        },
        {
          "indexed": false,
          "internalType": "bool",
          "name": "approved",
          "type": "bool"
        }
      ],
      "name": "ApprovalForAll",
      "type": "event"
    },
    {
      "anonymous": false,
      "inputs": [
        {
          "indexed": false,
          "internalType": "uint256",
          "name": "_fromTokenId",
          "type": "uint256"
        },
        {
          "indexed": false,
          "internalType": "uint256",
          "name": "_toTokenId",
          "type": "uint256"
        }
      ],
      "name": "BatchMetadataUpdate",
      "type": "event"
    },
    {
      "anonymous": false,
      "inputs": [
        {
          "indexed": false,
          "internalType": "uint256",
          "name": "characterId",
          "type": "uint256"
        }
      ],
      "name": "CharacterTraitDetermined",
      "type": "event"
    },
    {
      "anonymous": false,
      "inputs": [
        {
          "indexed": false,
          "internalType": "uint256",
          "name": "_tokenId",
          "type": "uint256"
        }
      ],
      "name": "MetadataUpdate",
      "type": "event"
    },
    {
      "anonymous": false,
      "inputs": [
        {
          "indexed": false,
          "internalType": "uint256",
          "name": "characterId",
          "type": "uint256"
        },
        {
          "indexed": false,
          "internalType": "address",
          "name": "minter",
          "type": "address"
        }
      ],
      "name": "NftMinted",
      "type": "event"
    },
    {
      "anonymous": false,
      "inputs": [
        {
          "indexed": false,
          "internalType": "uint256",
          "name": "requestId",
          "type": "uint256"
        },
        {
          "indexed": false,
          "internalType": "address",
          "name": "requester",
          "type": "address"
        }
      ],
      "name": "NftRequested",
      "type": "event"
    },
    {
      "anonymous": false,
      "inputs": [
        {
          "indexed": true,
          "internalType": "address",
          "name": "previousOwner",
          "type": "address"
        },
        {
          "indexed": true,
          "internalType": "address",
          "name": "newOwner",
          "type": "address"
        }
      ],
      "name": "OwnershipTransferred",
      "type": "event"
    },
    {
      "anonymous": false,
      "inputs": [
        {
          "indexed": true,
          "internalType": "address",
          "name": "from",
          "type": "address"
        },
        {
          "indexed": true,
          "internalType": "address",
          "name": "to",
          "type": "address"
        },
        {
          "indexed": true,
          "internalType": "uint256",
          "name": "tokenId",
          "type": "uint256"
        }
      ],
      "name": "Transfer",
      "type": "event"
    },
    {
      "inputs": [
        {
          "internalType": "address",
          "name": "to",
          "type": "address"
        },
        {
          "internalType": "uint256",
          "name": "tokenId",
          "type": "uint256"
        }
      ],
      "name": "approve",
      "outputs": [],
      "stateMutability": "nonpayable",
      "type": "function"
    },
    {
      "inputs": [
        {
          "internalType": "address",
          "name": "owner",
          "type": "address"
        }
      ],
      "name": "balanceOf",
      "outputs": [
        {
          "internalType": "uint256",
          "name": "",
          "type": "uint256"
        }
      ],
      "stateMutability": "view",
      "type": "function"
    },
    {
      "inputs": [
        {
          "internalType": "uint256",
          "name": "tokenId",
          "type": "uint256"
        }
      ],
      "name": "getApproved",
      "outputs": [
        {
          "internalType": "address",
          "name": "",
          "type": "address"
        }
      ],
      "stateMutability": "view",
      "type": "function"
    },
    {
      "inputs": [
        {
          "internalType": "address",
          "name": "",
          "type": "address"
        }
      ],
      "name": "hasMinted",
      "outputs": [
        {
          "internalType": "bool",
          "name": "",
          "type": "bool"
        }
      ],
      "stateMutability": "view",
      "type": "function"
    },
    {
      "inputs": [
        {
          "internalType": "address",
          "name": "owner",
          "type": "address"
        },
        {
          "internalType": "address",
          "name": "operator",
          "type": "address"
        }
      ],
      "name": "isApprovedForAll",
      "outputs": [
        {
          "internalType": "bool",
          "name": "",
          "type": "bool"
        }
      ],
      "stateMutability": "view",
      "type": "function"
    },
    {
      "inputs": [],
      "name": "name",
      "outputs": [
        {
          "internalType": "string",
          "name": "",
          "type": "string"
        }
      ],
      "stateMutability": "view",
      "type": "function"
    },
    {
      "inputs": [],
      "name": "owner",
      "outputs": [
        {
          "internalType": "address",
          "name": "",
          "type": "address"
        }
      ],
      "stateMutability": "view",
      "type": "function"
    },
    {
      "inputs": [
        {
          "internalType": "uint256",
          "name": "tokenId",
          "type": "uint256"
        }
      ],
      "name": "ownerOf",
      "outputs": [
        {
          "internalType": "address",
          "name": "",
          "type": "address"
        }
      ],
      "stateMutability": "view",
      "type": "function"
    },
    {
      "inputs": [
        {
          "internalType": "uint256",
          "name": "requestId",
          "type": "uint256"
        },
        {
          "internalType": "uint256[]",
          "name": "randomWords",
          "type": "uint256[]"
        }
      ],
      "name": "rawFulfillRandomWords",
      "outputs": [],
      "stateMutability": "nonpayable",
      "type": "function"
    },
    {
      "inputs": [],
      "name": "renounceOwnership",
      "outputs": [],
      "stateMutability": "nonpayable",
      "type": "function"
    },
    {
      "inputs": [
        {
          "internalType": "uint256[5]",
          "name": "answers",
          "type": "uint256[5]"
        }
      ],
      "name": "requestNFT",
      "outputs": [],
      "stateMutability": "nonpayable",
      "type": "function"
    },
    {
      "inputs": [
        {
          "internalType": "address",
          "name": "",
          "type": "address"
        }
      ],
      "name": "s_addressToCharacter",
      "outputs": [
        {
          "internalType": "uint256",
          "name": "",
          "type": "uint256"
        }
      ],
      "stateMutability": "view",
      "type": "function"
    },
    {
      "inputs": [
        {
          "internalType": "address",
          "name": "from",
          "type": "address"
        },
        {
          "internalType": "address",
          "name": "to",
          "type": "address"
        },
        {
          "internalType": "uint256",
          "name": "tokenId",
          "type": "uint256"
        }
      ],
      "name": "safeTransferFrom",
      "outputs": [],
      "stateMutability": "nonpayable",
      "type": "function"
    },
    {
      "inputs": [
        {
          "internalType": "address",
          "name": "from",
          "type": "address"
        },
        {
          "internalType": "address",
          "name": "to",
          "type": "address"
        },
        {
          "internalType": "uint256",
          "name": "tokenId",
          "type": "uint256"
        },
        {
          "internalType": "bytes",
          "name": "data",
          "type": "bytes"
        }
      ],
      "name": "safeTransferFrom",
      "outputs": [],
      "stateMutability": "nonpayable",
      "type": "function"
    },
    {
      "inputs": [
        {
          "internalType": "address",
          "name": "operator",
          "type": "address"
        },
        {
          "internalType": "bool",
          "name": "approved",
          "type": "bool"
        }
      ],
      "name": "setApprovalForAll",
      "outputs": [],
      "stateMutability": "nonpayable",
      "type": "function"
    },
    {
      "inputs": [
        {
          "internalType": "bytes4",
          "name": "interfaceId",
          "type": "bytes4"
        }
      ],
      "name": "supportsInterface",
      "outputs": [
        {
          "internalType": "bool",
          "name": "",
          "type": "bool"
        }
      ],
      "stateMutability": "view",
      "type": "function"
    },
    {
      "inputs": [],
      "name": "symbol",
      "outputs": [
        {
          "internalType": "string",
          "name": "",
          "type": "string"
        }
      ],
      "stateMutability": "view",
      "type": "function"
    },
    {
      "inputs": [
        {
          "internalType": "uint256",
          "name": "tokenId",
          "type": "uint256"
        }
      ],
      "name": "tokenURI",
      "outputs": [
        {
          "internalType": "string",
          "name": "",
          "type": "string"
        }
      ],
      "stateMutability": "view",
      "type": "function"
    },
    {
      "inputs": [
        {
          "internalType": "address",
          "name": "from",
          "type": "address"
        },
        {
          "internalType": "address",
          "name": "to",
          "type": "address"
        },
        {
          "internalType": "uint256",
          "name": "tokenId",
          "type": "uint256"
        }
      ],
      "name": "transferFrom",
      "outputs": [],
      "stateMutability": "nonpayable",
      "type": "function"
    },
    {
      "inputs": [
        {
          "internalType": "address",
          "name": "newOwner",
          "type": "address"
        }
      ],
      "name": "transferOwnership",
      "outputs": [],
      "stateMutability": "nonpayable",
      "type": "function"
    }
  ],
  "bytecode": "0x6102a0604052606261020081815260a091829190620028376102203981526020016040518060a0016040528060628152602001620027736062913981526020016040518060a0016040528060628152602001620028996062913981526020016040518060a0016040528060628152602001620027d56062913981526020016040518060a0016040528060628152602001620027d56062913981526020016040518060a0016040528060628152602001620027736062913981526020016040518060a0016040528060628152602001620028996062913981526020016040518060a0016040528060628152602001620027d56062913981526020016040518060a0016040528060628152602001620027736062913981526020016040518060a0016040528060628152602001620028996062913981526020016040518060a0016040528060628152602001620027d56062913990526200016390600990600b620002cd565b503480156200017157600080fd5b50604051620028fb380380620028fb8339810160408190526200019491620003a4565b604080518082018252600c81526b13db99541a5958d94813919560a21b6020808301919091528251808401909352600383526227a82760e91b908301526001600160a01b038616608052906000620001ed8382620004c3565b506001620001fc8282620004c3565b50505062000219620002136200027760201b60201c565b6200027b565b600a80546001600160401b03909416600160a01b026001600160e01b03199094166001600160a01b039095169490941792909217909255600b91909155600c805463ffffffff90921663ffffffff199092169190911790556200058f565b3390565b600680546001600160a01b038381166001600160a01b0319831681179093556040519116919082907f8be0079c531659141344cd1fd0a4f28419497f9722a3daafe3b4186f6b6457e090600090a35050565b82805482825590600052602060002090810192821562000318579160200282015b82811115620003185782518290620003079082620004c3565b5091602001919060010190620002ee565b50620003269291506200032a565b5090565b80821115620003265760006200034182826200034b565b506001016200032a565b508054620003599062000434565b6000825580601f106200036a575050565b601f0160209004906000526020600020908101906200038a91906200038d565b50565b5b808211156200032657600081556001016200038e565b60008060008060808587031215620003bb57600080fd5b84516001600160a01b0381168114620003d357600080fd5b60208601519094506001600160401b0381168114620003f157600080fd5b60408601516060870151919450925063ffffffff811681146200041357600080fd5b939692955090935050565b634e487b7160e01b600052604160045260246000fd5b600181811c908216806200044957607f821691505b6020821081036200046a57634e487b7160e01b600052602260045260246000fd5b50919050565b601f821115620004be57600081815260208120601f850160051c81016020861015620004995750805b601f850160051c820191505b81811015620004ba57828155600101620004a5565b5050505b505050565b81516001600160401b03811115620004df57620004df6200041e565b620004f781620004f0845462000434565b8462000470565b602080601f8311600181146200052f5760008415620005165750858301515b600019600386901b1c1916600185901b178555620004ba565b600085815260208120601f198616915b8281101562000560578886015182559484019460019091019084016200053f565b50858210156200057f5787850151600019600388901b60f8161c191681555b5050505050600190811b01905550565b6080516121c1620005b26000396000818161058301526105de01526121c16000f3fe608060405234801561001057600080fd5b506004361061016c5760003560e01c806370a08231116100cd578063a362fc8f11610081578063c87b56dd11610066578063c87b56dd146102f8578063e985e9c51461030b578063f2fde38b1461034757600080fd5b8063a362fc8f146102d2578063b88d4fde146102e557600080fd5b80638da5cb5b116100b25780638da5cb5b146102a657806395d89b41146102b7578063a22cb465146102bf57600080fd5b806370a082311461028b578063715018a61461029e57600080fd5b806323b872dd1161012457806342842e0e1161010957806342842e0e146102375780636352211e1461024a578063683305d41461025d57600080fd5b806323b872dd1461020157806338e21cce1461021457600080fd5b8063081812fc11610155578063081812fc146101ae578063095ea7b3146101d95780631fe543e3146101ee57600080fd5b806301ffc9a71461017157806306fdde0314610199575b600080fd5b61018461017f366004611b4c565b61035a565b60405190151581526020015b60405180910390f35b6101a161036b565b6040516101909190611bb9565b6101c16101bc366004611bcc565b6103fd565b6040516001600160a01b039091168152602001610190565b6101ec6101e7366004611c01565b610424565b005b6101ec6101fc366004611c72565b610578565b6101ec61020f366004611d24565b610619565b610184610222366004611d60565b600f6020526000908152604090205460ff1681565b6101ec610245366004611d24565b610690565b6101c1610258366004611bcc565b6106ab565b61027d61026b366004611d60565b60106020526000908152604090205481565b604051908152602001610190565b61027d610299366004611d60565b610710565b6101ec6107aa565b6006546001600160a01b03166101c1565b6101a16107be565b6101ec6102cd366004611d7b565b6107cd565b6101ec6102e0366004611db7565b6107d8565b6101ec6102f3366004611e35565b610928565b6101a1610306366004611bcc565b6109a6565b610184610319366004611ef5565b6001600160a01b03918216600090815260056020908152604080832093909416825291909152205460ff1690565b6101ec610355366004611d60565b6109b1565b600061036582610a41565b92915050565b60606000805461037a90611f28565b80601f01602080910402602001604051908101604052809291908181526020018280546103a690611f28565b80156103f35780601f106103c8576101008083540402835291602001916103f3565b820191906000526020600020905b8154815290600101906020018083116103d657829003601f168201915b5050505050905090565b600061040882610a7f565b506000908152600460205260409020546001600160a01b031690565b600061042f826106ab565b9050806001600160a01b0316836001600160a01b0316036104bd5760405162461bcd60e51b815260206004820152602160248201527f4552433732313a20617070726f76616c20746f2063757272656e74206f776e6560448201527f720000000000000000000000000000000000000000000000000000000000000060648201526084015b60405180910390fd5b336001600160a01b03821614806104f757506001600160a01b038116600090815260056020908152604080832033845290915290205460ff165b6105695760405162461bcd60e51b815260206004820152603d60248201527f4552433732313a20617070726f76652063616c6c6572206973206e6f7420746f60448201527f6b656e206f776e6572206f7220617070726f76656420666f7220616c6c00000060648201526084016104b4565b6105738383610ae3565b505050565b336001600160a01b037f0000000000000000000000000000000000000000000000000000000000000000161461060b576040517f1cf993f40000000000000000000000000000000000000000000000000000000081523360048201526001600160a01b037f00000000000000000000000000000000000000000000000000000000000000001660248201526044016104b4565b6106158282610b51565b5050565b6106233382610beb565b6106855760405162461bcd60e51b815260206004820152602d60248201527f4552433732313a2063616c6c6572206973206e6f7420746f6b656e206f776e6560448201526c1c881bdc88185c1c1c9bdd9959609a1b60648201526084016104b4565b610573838383610c6a565b61057383838360405180602001604052806000815250610928565b6000818152600260205260408120546001600160a01b0316806103655760405162461bcd60e51b815260206004820152601860248201527f4552433732313a20696e76616c696420746f6b656e204944000000000000000060448201526064016104b4565b60006001600160a01b03821661078e5760405162461bcd60e51b815260206004820152602960248201527f4552433732313a2061646472657373207a65726f206973206e6f74206120766160448201527f6c6964206f776e6572000000000000000000000000000000000000000000000060648201526084016104b4565b506001600160a01b031660009081526003602052604090205490565b6107b2610e70565b6107bc6000610eca565b565b60606001805461037a90611f28565b610615338383610f1c565b6107e181610fea565b336000908152600e602052604080822092909255600a54600b54600c5493517f5d3b1d30000000000000000000000000000000000000000000000000000000008152600481019190915274010000000000000000000000000000000000000000820467ffffffffffffffff1660248201526003604482015263ffffffff90931660648401526001608484015290916001600160a01b0390911690635d3b1d309060a4016020604051808303816000875af11580156108a3573d6000803e3d6000fd5b505050506040513d601f19601f820116820180604052508101906108c79190611f62565b6000818152600d602090815260409182902080546001600160a01b031916339081179091558251848152918201529192507ff873236e6cc0ecc5be1a9a35c95ee5b8d1ac4cc7bfef0cc5060391d6cc98e26b91015b60405180910390a15050565b6109323383610beb565b6109945760405162461bcd60e51b815260206004820152602d60248201527f4552433732313a2063616c6c6572206973206e6f7420746f6b656e206f776e6560448201526c1c881bdc88185c1c1c9bdd9959609a1b60648201526084016104b4565b6109a084848484611085565b50505050565b606061036582611103565b6109b9610e70565b6001600160a01b038116610a355760405162461bcd60e51b815260206004820152602660248201527f4f776e61626c653a206e6577206f776e657220697320746865207a65726f206160448201527f646472657373000000000000000000000000000000000000000000000000000060648201526084016104b4565b610a3e81610eca565b50565b60006001600160e01b031982167f4906490600000000000000000000000000000000000000000000000000000000148061036557506103658261120b565b6000818152600260205260409020546001600160a01b0316610a3e5760405162461bcd60e51b815260206004820152601860248201527f4552433732313a20696e76616c696420746f6b656e204944000000000000000060448201526064016104b4565b600081815260046020526040902080546001600160a01b0319166001600160a01b0384169081179091558190610b18826106ab565b6001600160a01b03167f8c5be1e5ebec7d5bd14f71427d1e84f3dd0314c0f7b2291e5b200ac8c7c3b92560405160405180910390a45050565b6000828152600d60209081526040808320546001600160a01b0316808452600e90925282205483519192909184908290610b8d57610b8d611f7b565b602002602001015190506000600582610ba69190611f91565b610bb1906001611fc9565b905060006005610bc18386611fc9565b610bcb9190611f91565b610bd6906001611fc9565b9050610be285826112a6565b50505050505050565b600080610bf7836106ab565b9050806001600160a01b0316846001600160a01b03161480610c3e57506001600160a01b0380821660009081526005602090815260408083209388168352929052205460ff165b80610c625750836001600160a01b0316610c57846103fd565b6001600160a01b0316145b949350505050565b826001600160a01b0316610c7d826106ab565b6001600160a01b031614610ce15760405162461bcd60e51b815260206004820152602560248201527f4552433732313a207472616e736665722066726f6d20696e636f72726563742060448201526437bbb732b960d91b60648201526084016104b4565b6001600160a01b038216610d5c5760405162461bcd60e51b8152602060048201526024808201527f4552433732313a207472616e7366657220746f20746865207a65726f2061646460448201527f726573730000000000000000000000000000000000000000000000000000000060648201526084016104b4565b610d698383836001611487565b826001600160a01b0316610d7c826106ab565b6001600160a01b031614610de05760405162461bcd60e51b815260206004820152602560248201527f4552433732313a207472616e736665722066726f6d20696e636f72726563742060448201526437bbb732b960d91b60648201526084016104b4565b600081815260046020908152604080832080546001600160a01b03199081169091556001600160a01b0387811680865260038552838620805460001901905590871680865283862080546001019055868652600290945282852080549092168417909155905184937fddf252ad1be2c89b69c2b068fc378daa952ba7f163c4a11628f55a4df523b3ef91a4505050565b6006546001600160a01b031633146107bc5760405162461bcd60e51b815260206004820181905260248201527f4f776e61626c653a2063616c6c6572206973206e6f7420746865206f776e657260448201526064016104b4565b600680546001600160a01b038381166001600160a01b0319831681179093556040519116919082907f8be0079c531659141344cd1fd0a4f28419497f9722a3daafe3b4186f6b6457e090600090a35050565b816001600160a01b0316836001600160a01b031603610f7d5760405162461bcd60e51b815260206004820152601960248201527f4552433732313a20617070726f766520746f2063616c6c65720000000000000060448201526064016104b4565b6001600160a01b03838116600081815260056020908152604080832094871680845294825291829020805460ff191686151590811790915591519182527f17307eab39ab6107e8899845ad3d59bd9653f200f220920489ca2b5937696c31910160405180910390a3505050565b600080805b600581101561102d5783816005811061100a5761100a611f7b565b60200201516110199083611fc9565b91508061102581611fdc565b915050610fef565b50611039600582611f91565b611044906001611fc9565b90507f634fccbf98fc875142862789978822a92147ac902bd85a53dcf58214f3ae33dd8160405161107791815260200190565b60405180910390a192915050565b611090848484610c6a565b61109c848484846114f0565b6109a05760405162461bcd60e51b815260206004820152603260248201527f4552433732313a207472616e7366657220746f206e6f6e20455243373231526560448201527131b2b4bb32b91034b6b83632b6b2b73a32b960711b60648201526084016104b4565b606061110e82610a7f565b6000828152600760205260408120805461112790611f28565b80601f016020809104026020016040519081016040528092919081815260200182805461115390611f28565b80156111a05780601f10611175576101008083540402835291602001916111a0565b820191906000526020600020905b81548152906001019060200180831161118357829003601f168201915b5050505050905060006111be60408051602081019091526000815290565b905080516000036111d0575092915050565b8151156112025780826040516020016111ea929190611ff5565b60405160208183030381529060405292505050919050565b610c628461163c565b60006001600160e01b031982167f80ac58cd00000000000000000000000000000000000000000000000000000000148061126e57506001600160e01b031982167f5b5e139f00000000000000000000000000000000000000000000000000000000145b8061036557507f01ffc9a7000000000000000000000000000000000000000000000000000000006001600160e01b0319831614610365565b6001600160a01b0382166000908152600f602052604090205460ff16156113355760405162461bcd60e51b815260206004820152602660248201527f596f75206861766520616c7265616479206d696e74656420796f757220686f7560448201527f7365204e4654000000000000000000000000000000000000000000000000000060648201526084016104b4565b60085461134283826116b0565b6113f1816009848154811061135957611359611f7b565b90600052602060002001805461136e90611f28565b80601f016020809104026020016040519081016040528092919081815260200182805461139a90611f28565b80156113e75780601f106113bc576101008083540402835291602001916113e7565b820191906000526020600020905b8154815290600101906020018083116113ca57829003601f168201915b50505050506116ca565b6001600160a01b0383166000908152601060205260408120839055600880546001929061141f908490611fc9565b90915550506001600160a01b0383166000818152600f6020908152604091829020805460ff191660011790558151858152908101929092527f769eff512f395b679667e0062a0e31dad5d22dbc7e6b87f16c3de7e85e663460910160405180910390a1505050565b6001600160a01b03841615806114a457506001600160a01b038316155b6109a05760405162461bcd60e51b815260206004820152601860248201527f457272212054686973206973206e6f7420616c6c6f776564000000000000000060448201526064016104b4565b60006001600160a01b0384163b1561163157604051630a85bd0160e11b81526001600160a01b0385169063150b7a0290611534903390899088908890600401612024565b6020604051808303816000875af192505050801561156f575060408051601f3d908101601f1916820190925261156c91810190612060565b60015b611617573d80801561159d576040519150601f19603f3d011682016040523d82523d6000602084013e6115a2565b606091505b50805160000361160f5760405162461bcd60e51b815260206004820152603260248201527f4552433732313a207472616e7366657220746f206e6f6e20455243373231526560448201527131b2b4bb32b91034b6b83632b6b2b73a32b960711b60648201526084016104b4565b805181602001fd5b6001600160e01b031916630a85bd0160e11b149050610c62565b506001949350505050565b606061164782610a7f565b600061165e60408051602081019091526000815290565b9050600081511161167e57604051806020016040528060008152506116a9565b806116888461179d565b604051602001611699929190611ff5565b6040516020818303038152906040525b9392505050565b61061582826040518060200160405280600081525061183d565b6000828152600260205260409020546001600160a01b03166117545760405162461bcd60e51b815260206004820152602e60248201527f45524337323155524953746f726167653a2055524920736574206f66206e6f6e60448201527f6578697374656e7420746f6b656e00000000000000000000000000000000000060648201526084016104b4565b600082815260076020526040902061176c82826120cb565b506040518281527ff8e1a15aba9398e019f0b49df1a4fde98ee17ae345cb5f6b5e2c27f5033e8ce79060200161091c565b606060006117aa836118bb565b600101905060008167ffffffffffffffff8111156117ca576117ca611c2b565b6040519080825280601f01601f1916602001820160405280156117f4576020820181803683370190505b5090508181016020015b600019017f3031323334353637383961626364656600000000000000000000000000000000600a86061a8153600a85049450846117fe57509392505050565b611847838361199d565b61185460008484846114f0565b6105735760405162461bcd60e51b815260206004820152603260248201527f4552433732313a207472616e7366657220746f206e6f6e20455243373231526560448201527131b2b4bb32b91034b6b83632b6b2b73a32b960711b60648201526084016104b4565b6000807a184f03e93ff9f4daa797ed6e38ed64bf6a1f0100000000000000008310611904577a184f03e93ff9f4daa797ed6e38ed64bf6a1f010000000000000000830492506040015b6d04ee2d6d415b85acef81000000008310611930576d04ee2d6d415b85acef8100000000830492506020015b662386f26fc10000831061194e57662386f26fc10000830492506010015b6305f5e1008310611966576305f5e100830492506008015b612710831061197a57612710830492506004015b6064831061198c576064830492506002015b600a83106103655760010192915050565b6001600160a01b0382166119f35760405162461bcd60e51b815260206004820181905260248201527f4552433732313a206d696e7420746f20746865207a65726f206164647265737360448201526064016104b4565b6000818152600260205260409020546001600160a01b031615611a585760405162461bcd60e51b815260206004820152601c60248201527f4552433732313a20746f6b656e20616c7265616479206d696e7465640000000060448201526064016104b4565b611a66600083836001611487565b6000818152600260205260409020546001600160a01b031615611acb5760405162461bcd60e51b815260206004820152601c60248201527f4552433732313a20746f6b656e20616c7265616479206d696e7465640000000060448201526064016104b4565b6001600160a01b038216600081815260036020908152604080832080546001019055848352600290915280822080546001600160a01b0319168417905551839291907fddf252ad1be2c89b69c2b068fc378daa952ba7f163c4a11628f55a4df523b3ef908290a45050565b6001600160e01b031981168114610a3e57600080fd5b600060208284031215611b5e57600080fd5b81356116a981611b36565b60005b83811015611b84578181015183820152602001611b6c565b50506000910152565b60008151808452611ba5816020860160208601611b69565b601f01601f19169290920160200192915050565b6020815260006116a96020830184611b8d565b600060208284031215611bde57600080fd5b5035919050565b80356001600160a01b0381168114611bfc57600080fd5b919050565b60008060408385031215611c1457600080fd5b611c1d83611be5565b946020939093013593505050565b634e487b7160e01b600052604160045260246000fd5b604051601f8201601f1916810167ffffffffffffffff81118282101715611c6a57611c6a611c2b565b604052919050565b60008060408385031215611c8557600080fd5b8235915060208084013567ffffffffffffffff80821115611ca557600080fd5b818601915086601f830112611cb957600080fd5b813581811115611ccb57611ccb611c2b565b8060051b9150611cdc848301611c41565b8181529183018401918481019089841115611cf657600080fd5b938501935b83851015611d1457843582529385019390850190611cfb565b8096505050505050509250929050565b600080600060608486031215611d3957600080fd5b611d4284611be5565b9250611d5060208501611be5565b9150604084013590509250925092565b600060208284031215611d7257600080fd5b6116a982611be5565b60008060408385031215611d8e57600080fd5b611d9783611be5565b915060208301358015158114611dac57600080fd5b809150509250929050565b600060a08284031215611dc957600080fd5b82601f830112611dd857600080fd5b60405160a0810181811067ffffffffffffffff82111715611dfb57611dfb611c2b565b6040528060a0840185811115611e1057600080fd5b845b81811015611e2a578035835260209283019201611e12565b509195945050505050565b60008060008060808587031215611e4b57600080fd5b611e5485611be5565b93506020611e63818701611be5565b935060408601359250606086013567ffffffffffffffff80821115611e8757600080fd5b818801915088601f830112611e9b57600080fd5b813581811115611ead57611ead611c2b565b611ebf601f8201601f19168501611c41565b91508082528984828501011115611ed557600080fd5b808484018584013760008482840101525080935050505092959194509250565b60008060408385031215611f0857600080fd5b611f1183611be5565b9150611f1f60208401611be5565b90509250929050565b600181811c90821680611f3c57607f821691505b602082108103611f5c57634e487b7160e01b600052602260045260246000fd5b50919050565b600060208284031215611f7457600080fd5b5051919050565b634e487b7160e01b600052603260045260246000fd5b600082611fae57634e487b7160e01b600052601260045260246000fd5b500690565b634e487b7160e01b600052601160045260246000fd5b8082018082111561036557610365611fb3565b600060018201611fee57611fee611fb3565b5060010190565b60008351612007818460208801611b69565b83519083019061201b818360208801611b69565b01949350505050565b60006001600160a01b038087168352808616602084015250836040830152608060608301526120566080830184611b8d565b9695505050505050565b60006020828403121561207257600080fd5b81516116a981611b36565b601f82111561057357600081815260208120601f850160051c810160208610156120a45750805b601f850160051c820191505b818110156120c3578281556001016120b0565b505050505050565b815167ffffffffffffffff8111156120e5576120e5611c2b565b6120f9816120f38454611f28565b8461207d565b602080601f83116001811461212e57600084156121165750858301515b600019600386901b1c1916600185901b1785556120c3565b600085815260208120601f198616915b8281101561215d5788860151825594840194600190910190840161213e565b508582101561217b5787850151600019600388901b60f8161c191681555b5050505050600190811b0190555056fea26469706673582212209ae1b6a39fc0aee3ad86fdb802dd330ec6d15f44ec8479ea37e5cf8b4657e85f64736f6c6343000814003368747470733a2f2f736361726c65742d6c6976652d696775616e612d3735392e6d7970696e6174612e636c6f75642f697066732f516d50486146743535506569646743755865326b616552596d4c61425550453159374b67347444797a61705a487968747470733a2f2f736361726c65742d6c6976652d696775616e612d3735392e6d7970696e6174612e636c6f75642f697066732f516d536e4e586f35687872466e706279426562376a59376a686b6d3565796b6e6143587472386d756b333141484b68747470733a2f2f736361726c65742d6c6976652d696775616e612d3735392e6d7970696e6174612e636c6f75642f697066732f516d4e7034734866346363715070714d4255435347314370467746523444366b674865737863316d4c733735616d68747470733a2f2f736361726c65742d6c6976652d696775616e612d3735392e6d7970696e6174612e636c6f75642f697066732f516d50397043394a7555704b636e6a556b384742584557565447764b3346546a584c393151334d4a327268413136",
  "linkReferences": {},
  "deployedLinkReferences": {}
}