{
  "_format": "hh-sol-artifact-1",
  "contractName": "OnePieceMint",
  "sourceName": "contracts/OnePieceDapp.sol",
  "abi": [
    {
      "inputs": [
        {
          "internalType": "address",
          "name": "vrfCoordinatorV2Address",
          "type": "address"
        },
        {
          "internalType": "uint256",
          "name": "subscriptionId",
          "type": "uint256"
        },
        {
          "internalType": "bytes32",
          "name": "keyHash",
          "type": "bytes32"
        },
        {
          "internalType": "uint32",
          "name": "callbackGasLimit",
          "type": "uint32"
        }
      ],
      "stateMutability": "nonpayable",
      "type": "constructor"
    },
    {
      "inputs": [
        {
          "internalType": "address",
          "name": "have",
          "type": "address"
        },
        {
          "internalType": "address",
          "name": "want",
          "type": "address"
        }
      ],
      "name": "OnlyCoordinatorCanFulfill",
      "type": "error"
    },
    {
      "inputs": [
        {
          "internalType": "address",
          "name": "have",
          "type": "address"
        },
        {
          "internalType": "address",
          "name": "owner",
          "type": "address"
        },
        {
          "internalType": "address",
          "name": "coordinator",
          "type": "address"
        }
      ],
      "name": "OnlyOwnerOrCoordinator",
      "type": "error"
    },
    {
      "inputs": [],
      "name": "ZeroAddress",
      "type": "error"
    },
    {
      "anonymous": false,
      "inputs": [
        {
          "indexed": true,
          "internalType": "address",
          "name": "owner",
          "type": "address"
        },
        {
          "indexed": true,
          "internalType": "address",
          "name": "approved",
          "type": "address"
        },
        {
          "indexed": true,
          "internalType": "uint256",
          "name": "tokenId",
          "type": "uint256"
        }
      ],
      "name": "Approval",
      "type": "event"
    },
    {
      "anonymous": false,
      "inputs": [
        {
          "indexed": true,
          "internalType": "address",
          "name": "owner",
          "type": "address"
        },
        {
          "indexed": true,
          "internalType": "address",
          "name": "operator",
          "type": "address"
        },
        {
          "indexed": false,
          "internalType": "bool",
          "name": "approved",
          "type": "bool"
        }
      ],
      "name": "ApprovalForAll",
      "type": "event"
    },
    {
      "anonymous": false,
      "inputs": [
        {
          "indexed": false,
          "internalType": "uint256",
          "name": "_fromTokenId",
          "type": "uint256"
        },
        {
          "indexed": false,
          "internalType": "uint256",
          "name": "_toTokenId",
          "type": "uint256"
        }
      ],
      "name": "BatchMetadataUpdate",
      "type": "event"
    },
    {
      "anonymous": false,
      "inputs": [
        {
          "indexed": false,
          "internalType": "uint256",
          "name": "characterId",
          "type": "uint256"
        }
      ],
      "name": "CharacterTraitDetermined",
      "type": "event"
    },
    {
      "anonymous": false,
      "inputs": [
        {
          "indexed": false,
          "internalType": "address",
          "name": "vrfCoordinator",
          "type": "address"
        }
      ],
      "name": "CoordinatorSet",
      "type": "event"
    },
    {
      "anonymous": false,
      "inputs": [
        {
          "indexed": false,
          "internalType": "uint256",
          "name": "_tokenId",
          "type": "uint256"
        }
      ],
      "name": "MetadataUpdate",
      "type": "event"
    },
    {
      "anonymous": false,
      "inputs": [
        {
          "indexed": false,
          "internalType": "uint256",
          "name": "characterId",
          "type": "uint256"
        },
        {
          "indexed": false,
          "internalType": "address",
          "name": "minter",
          "type": "address"
        }
      ],
      "name": "NftMinted",
      "type": "event"
    },
    {
      "anonymous": false,
      "inputs": [
        {
          "indexed": false,
          "internalType": "uint256",
          "name": "requestId",
          "type": "uint256"
        },
        {
          "indexed": false,
          "internalType": "address",
          "name": "requester",
          "type": "address"
        }
      ],
      "name": "NftRequested",
      "type": "event"
    },
    {
      "anonymous": false,
      "inputs": [
        {
          "indexed": true,
          "internalType": "address",
          "name": "from",
          "type": "address"
        },
        {
          "indexed": true,
          "internalType": "address",
          "name": "to",
          "type": "address"
        }
      ],
      "name": "OwnershipTransferRequested",
      "type": "event"
    },
    {
      "anonymous": false,
      "inputs": [
        {
          "indexed": true,
          "internalType": "address",
          "name": "from",
          "type": "address"
        },
        {
          "indexed": true,
          "internalType": "address",
          "name": "to",
          "type": "address"
        }
      ],
      "name": "OwnershipTransferred",
      "type": "event"
    },
    {
      "anonymous": false,
      "inputs": [
        {
          "indexed": true,
          "internalType": "address",
          "name": "from",
          "type": "address"
        },
        {
          "indexed": true,
          "internalType": "address",
          "name": "to",
          "type": "address"
        },
        {
          "indexed": true,
          "internalType": "uint256",
          "name": "tokenId",
          "type": "uint256"
        }
      ],
      "name": "Transfer",
      "type": "event"
    },
    {
      "inputs": [],
      "name": "acceptOwnership",
      "outputs": [],
      "stateMutability": "nonpayable",
      "type": "function"
    },
    {
      "inputs": [
        {
          "internalType": "address",
          "name": "to",
          "type": "address"
        },
        {
          "internalType": "uint256",
          "name": "tokenId",
          "type": "uint256"
        }
      ],
      "name": "approve",
      "outputs": [],
      "stateMutability": "nonpayable",
      "type": "function"
    },
    {
      "inputs": [
        {
          "internalType": "address",
          "name": "owner",
          "type": "address"
        }
      ],
      "name": "balanceOf",
      "outputs": [
        {
          "internalType": "uint256",
          "name": "",
          "type": "uint256"
        }
      ],
      "stateMutability": "view",
      "type": "function"
    },
    {
      "inputs": [
        {
          "internalType": "uint256",
          "name": "tokenId",
          "type": "uint256"
        }
      ],
      "name": "getApproved",
      "outputs": [
        {
          "internalType": "address",
          "name": "",
          "type": "address"
        }
      ],
      "stateMutability": "view",
      "type": "function"
    },
    {
      "inputs": [
        {
          "internalType": "address",
          "name": "",
          "type": "address"
        }
      ],
      "name": "hasMinted",
      "outputs": [
        {
          "internalType": "bool",
          "name": "",
          "type": "bool"
        }
      ],
      "stateMutability": "view",
      "type": "function"
    },
    {
      "inputs": [
        {
          "internalType": "address",
          "name": "owner",
          "type": "address"
        },
        {
          "internalType": "address",
          "name": "operator",
          "type": "address"
        }
      ],
      "name": "isApprovedForAll",
      "outputs": [
        {
          "internalType": "bool",
          "name": "",
          "type": "bool"
        }
      ],
      "stateMutability": "view",
      "type": "function"
    },
    {
      "inputs": [],
      "name": "name",
      "outputs": [
        {
          "internalType": "string",
          "name": "",
          "type": "string"
        }
      ],
      "stateMutability": "view",
      "type": "function"
    },
    {
      "inputs": [],
      "name": "owner",
      "outputs": [
        {
          "internalType": "address",
          "name": "",
          "type": "address"
        }
      ],
      "stateMutability": "view",
      "type": "function"
    },
    {
      "inputs": [
        {
          "internalType": "uint256",
          "name": "tokenId",
          "type": "uint256"
        }
      ],
      "name": "ownerOf",
      "outputs": [
        {
          "internalType": "address",
          "name": "",
          "type": "address"
        }
      ],
      "stateMutability": "view",
      "type": "function"
    },
    {
      "inputs": [
        {
          "internalType": "uint256",
          "name": "requestId",
          "type": "uint256"
        },
        {
          "internalType": "uint256[]",
          "name": "randomWords",
          "type": "uint256[]"
        }
      ],
      "name": "rawFulfillRandomWords",
      "outputs": [],
      "stateMutability": "nonpayable",
      "type": "function"
    },
    {
      "inputs": [
        {
          "internalType": "uint256[5]",
          "name": "answers",
          "type": "uint256[5]"
        }
      ],
      "name": "requestNFT",
      "outputs": [],
      "stateMutability": "nonpayable",
      "type": "function"
    },
    {
      "inputs": [
        {
          "internalType": "address",
          "name": "",
          "type": "address"
        }
      ],
      "name": "s_addressToCharacter",
      "outputs": [
        {
          "internalType": "uint256",
          "name": "",
          "type": "uint256"
        }
      ],
      "stateMutability": "view",
      "type": "function"
    },
    {
      "inputs": [],
      "name": "s_subscriptionId",
      "outputs": [
        {
          "internalType": "uint256",
          "name": "",
          "type": "uint256"
        }
      ],
      "stateMutability": "view",
      "type": "function"
    },
    {
      "inputs": [],
      "name": "s_vrfCoordinator",
      "outputs": [
        {
          "internalType": "contract IVRFCoordinatorV2Plus",
          "name": "",
          "type": "address"
        }
      ],
      "stateMutability": "view",
      "type": "function"
    },
    {
      "inputs": [
        {
          "internalType": "address",
          "name": "from",
          "type": "address"
        },
        {
          "internalType": "address",
          "name": "to",
          "type": "address"
        },
        {
          "internalType": "uint256",
          "name": "tokenId",
          "type": "uint256"
        }
      ],
      "name": "safeTransferFrom",
      "outputs": [],
      "stateMutability": "nonpayable",
      "type": "function"
    },
    {
      "inputs": [
        {
          "internalType": "address",
          "name": "from",
          "type": "address"
        },
        {
          "internalType": "address",
          "name": "to",
          "type": "address"
        },
        {
          "internalType": "uint256",
          "name": "tokenId",
          "type": "uint256"
        },
        {
          "internalType": "bytes",
          "name": "data",
          "type": "bytes"
        }
      ],
      "name": "safeTransferFrom",
      "outputs": [],
      "stateMutability": "nonpayable",
      "type": "function"
    },
    {
      "inputs": [
        {
          "internalType": "address",
          "name": "operator",
          "type": "address"
        },
        {
          "internalType": "bool",
          "name": "approved",
          "type": "bool"
        }
      ],
      "name": "setApprovalForAll",
      "outputs": [],
      "stateMutability": "nonpayable",
      "type": "function"
    },
    {
      "inputs": [
        {
          "internalType": "address",
          "name": "_vrfCoordinator",
          "type": "address"
        }
      ],
      "name": "setCoordinator",
      "outputs": [],
      "stateMutability": "nonpayable",
      "type": "function"
    },
    {
      "inputs": [
        {
          "internalType": "bytes4",
          "name": "interfaceId",
          "type": "bytes4"
        }
      ],
      "name": "supportsInterface",
      "outputs": [
        {
          "internalType": "bool",
          "name": "",
          "type": "bool"
        }
      ],
      "stateMutability": "view",
      "type": "function"
    },
    {
      "inputs": [],
      "name": "symbol",
      "outputs": [
        {
          "internalType": "string",
          "name": "",
          "type": "string"
        }
      ],
      "stateMutability": "view",
      "type": "function"
    },
    {
      "inputs": [
        {
          "internalType": "uint256",
          "name": "tokenId",
          "type": "uint256"
        }
      ],
      "name": "tokenURI",
      "outputs": [
        {
          "internalType": "string",
          "name": "",
          "type": "string"
        }
      ],
      "stateMutability": "view",
      "type": "function"
    },
    {
      "inputs": [
        {
          "internalType": "address",
          "name": "from",
          "type": "address"
        },
        {
          "internalType": "address",
          "name": "to",
          "type": "address"
        },
        {
          "internalType": "uint256",
          "name": "tokenId",
          "type": "uint256"
        }
      ],
      "name": "transferFrom",
      "outputs": [],
      "stateMutability": "nonpayable",
      "type": "function"
    },
    {
      "inputs": [
        {
          "internalType": "address",
          "name": "to",
          "type": "address"
        }
      ],
      "name": "transferOwnership",
      "outputs": [],
      "stateMutability": "nonpayable",
      "type": "function"
    },
    {
      "inputs": [
        {
          "internalType": "address",
          "name": "",
          "type": "address"
        }
      ],
      "name": "userTokenID",
      "outputs": [
        {
          "internalType": "uint256",
          "name": "",
          "type": "uint256"
        }
      ],
      "stateMutability": "view",
      "type": "function"
    }
  ],
  "bytecode": "0x6101c0604052606261012081815260809182919062002ac86101403981526020016040518060a001604052806062815260200162002a046062913981526020016040518060a001604052806062815260200162002b8c6062913981526020016040518060a001604052806062815260200162002a666062913981526020016040518060a001604052806062815260200162002b2a606291399052620000a990600b906005620002fd565b50600e805465ffffffffffff60201b19166601000300000000179055348015620000d257600080fd5b5060405162002bee38038062002bee833981016040819052620000f591620003d4565b604080518082018252600c81526b13db99541a5958d94813919560a21b6020808301919091528251808401909352600383526227a82760e91b90830152908533806000816200018b5760405162461bcd60e51b815260206004820152601860248201527f43616e6e6f7420736574206f776e657220746f207a65726f000000000000000060448201526064015b60405180910390fd5b600080546001600160a01b0319166001600160a01b0384811691909117909155811615620001be57620001be8162000252565b5050506001600160a01b038116620001e95760405163d92e233d60e01b815260040160405180910390fd5b600280546001600160a01b0319166001600160a01b03929092169190911790556003620002178382620004dd565b506004620002268282620004dd565b505050600c92909255600d55600e805463ffffffff191663ffffffff90921691909117905550620005a9565b336001600160a01b03821603620002ac5760405162461bcd60e51b815260206004820152601760248201527f43616e6e6f74207472616e7366657220746f2073656c66000000000000000000604482015260640162000182565b600180546001600160a01b0319166001600160a01b0383811691821790925560008054604051929316917fed8889f560326eb138920d842192f0eb3dd22b4f139c87a2c57538e05bae12789190a350565b82805482825590600052602060002090810192821562000348579160200282015b82811115620003485782518290620003379082620004dd565b50916020019190600101906200031e565b50620003569291506200035a565b5090565b80821115620003565760006200037182826200037b565b506001016200035a565b50805462000389906200044e565b6000825580601f106200039a575050565b601f016020900490600052602060002090810190620003ba9190620003bd565b50565b5b80821115620003565760008155600101620003be565b60008060008060808587031215620003eb57600080fd5b84516001600160a01b03811681146200040357600080fd5b809450506020850151925060408501519150606085015163ffffffff811681146200042d57600080fd5b939692955090935050565b634e487b7160e01b600052604160045260246000fd5b600181811c908216806200046357607f821691505b6020821081036200048457634e487b7160e01b600052602260045260246000fd5b50919050565b601f821115620004d857600081815260208120601f850160051c81016020861015620004b35750805b601f850160051c820191505b81811015620004d457828155600101620004bf565b5050505b505050565b81516001600160401b03811115620004f957620004f962000438565b62000511816200050a84546200044e565b846200048a565b602080601f831160018114620005495760008415620005305750858301515b600019600386901b1c1916600185901b178555620004d4565b600085815260208120601f198616915b828110156200057a5788860151825594840194600190910190840162000559565b5085821015620005995787850151600019600388901b60f8161c191681555b5050505050600190811b01905550565b61244b80620005b96000396000f3fe608060405234801561001057600080fd5b50600436106101985760003560e01c80638ac00021116100e3578063a362fc8f1161008c578063c87b56dd11610066578063c87b56dd14610373578063e985e9c514610386578063f2fde38b146103c257600080fd5b8063a362fc8f1461032d578063b88c947514610340578063b88d4fde1461036057600080fd5b806395d89b41116100bd57806395d89b41146102ff5780639eccacf614610307578063a22cb4651461031a57600080fd5b80638ac00021146102d25780638da5cb5b146102db5780638ea98117146102ec57600080fd5b806338e21cce11610145578063683305d41161011f578063683305d41461028957806370a08231146102b757806379ba5097146102ca57600080fd5b806338e21cce1461024057806342842e0e146102635780636352211e1461027657600080fd5b8063095ea7b311610176578063095ea7b3146102055780631fe543e31461021a57806323b872dd1461022d57600080fd5b806301ffc9a71461019d57806306fdde03146101c5578063081812fc146101da575b600080fd5b6101b06101ab366004611dac565b6103d5565b60405190151581526020015b60405180910390f35b6101cd6103e6565b6040516101bc9190611e19565b6101ed6101e8366004611e2c565b610478565b6040516001600160a01b0390911681526020016101bc565b610218610213366004611e61565b61049f565b005b610218610228366004611e8b565b6105f3565b61021861023b366004611f0a565b610657565b6101b061024e366004611f46565b60116020526000908152604090205460ff1681565b610218610271366004611f0a565b6106ce565b6101ed610284366004611e2c565b6106e9565b6102a9610297366004611f46565b60126020526000908152604090205481565b6040519081526020016101bc565b6102a96102c5366004611f46565b61074e565b6102186107e8565b6102a9600c5481565b6000546001600160a01b03166101ed565b6102186102fa366004611f46565b610899565b6101cd6109bd565b6002546101ed906001600160a01b031681565b610218610328366004611f61565b6109cc565b61021861033b366004611fe4565b6109db565b6102a961034e366004611f46565b60136020526000908152604090205481565b61021861036e366004612062565b610b32565b6101cd610381366004611e2c565b610bb0565b6101b0610394366004612122565b6001600160a01b03918216600090815260086020908152604080832093909416825291909152205460ff1690565b6102186103d0366004611f46565b610bbb565b60006103e082610bcf565b92915050565b6060600380546103f590612155565b80601f016020809104026020016040519081016040528092919081815260200182805461042190612155565b801561046e5780601f106104435761010080835404028352916020019161046e565b820191906000526020600020905b81548152906001019060200180831161045157829003601f168201915b5050505050905090565b600061048382610c0d565b506000908152600760205260409020546001600160a01b031690565b60006104aa826106e9565b9050806001600160a01b0316836001600160a01b0316036105385760405162461bcd60e51b815260206004820152602160248201527f4552433732313a20617070726f76616c20746f2063757272656e74206f776e6560448201527f720000000000000000000000000000000000000000000000000000000000000060648201526084015b60405180910390fd5b336001600160a01b038216148061057257506001600160a01b038116600090815260086020908152604080832033845290915290205460ff165b6105e45760405162461bcd60e51b815260206004820152603d60248201527f4552433732313a20617070726f76652063616c6c6572206973206e6f7420746f60448201527f6b656e206f776e6572206f7220617070726f76656420666f7220616c6c000000606482015260840161052f565b6105ee8383610c71565b505050565b6002546001600160a01b0316331461064c576002546040517f1cf993f40000000000000000000000000000000000000000000000000000000081523360048201526001600160a01b03909116602482015260440161052f565b6105ee838383610cdf565b6106613382610d5f565b6106c35760405162461bcd60e51b815260206004820152602d60248201527f4552433732313a2063616c6c6572206973206e6f7420746f6b656e206f776e6560448201526c1c881bdc88185c1c1c9bdd9959609a1b606482015260840161052f565b6105ee838383610dde565b6105ee83838360405180602001604052806000815250610b32565b6000818152600560205260408120546001600160a01b0316806103e05760405162461bcd60e51b815260206004820152601860248201527f4552433732313a20696e76616c696420746f6b656e2049440000000000000000604482015260640161052f565b60006001600160a01b0382166107cc5760405162461bcd60e51b815260206004820152602960248201527f4552433732313a2061646472657373207a65726f206973206e6f74206120766160448201527f6c6964206f776e65720000000000000000000000000000000000000000000000606482015260840161052f565b506001600160a01b031660009081526006602052604090205490565b6001546001600160a01b031633146108425760405162461bcd60e51b815260206004820152601660248201527f4d7573742062652070726f706f736564206f776e657200000000000000000000604482015260640161052f565b60008054336001600160a01b0319808316821784556001805490911690556040516001600160a01b0390921692909183917f8be0079c531659141344cd1fd0a4f28419497f9722a3daafe3b4186f6b6457e091a350565b6000546001600160a01b031633148015906108bf57506002546001600160a01b03163314155b1561092957336108d76000546001600160a01b031690565b6002546040517f061db9c10000000000000000000000000000000000000000000000000000000081526001600160a01b039384166004820152918316602483015291909116604482015260640161052f565b6001600160a01b038116610969576040517fd92e233d00000000000000000000000000000000000000000000000000000000815260040160405180910390fd5b600280546001600160a01b0319166001600160a01b0383169081179091556040519081527fd1a6a14209a385a964d036e404cb5cfb71f4000cdb03c9366292430787261be69060200160405180910390a150565b6060600480546103f590612155565b6109d7338383610fe4565b5050565b6109e4816110b2565b33600090815260106020908152604080832093909355600254835160c081018552600d548152600c5481840152600e54640100000000810461ffff168287015263ffffffff80821660608401526601000000000000909104166080820152845192830190945282825291926001600160a01b0390921691639b1c385e9160a0820190610a6f9061114d565b8152506040518263ffffffff1660e01b8152600401610a8e919061218f565b6020604051808303816000875af1158015610aad573d6000803e3d6000fd5b505050506040513d601f19601f82011682018060405250810190610ad191906121ec565b6000818152600f602090815260409182902080546001600160a01b031916339081179091558251848152918201529192507ff873236e6cc0ecc5be1a9a35c95ee5b8d1ac4cc7bfef0cc5060391d6cc98e26b91015b60405180910390a15050565b610b3c3383610d5f565b610b9e5760405162461bcd60e51b815260206004820152602d60248201527f4552433732313a2063616c6c6572206973206e6f7420746f6b656e206f776e6560448201526c1c881bdc88185c1c1c9bdd9959609a1b606482015260840161052f565b610baa848484846111d3565b50505050565b60606103e082611251565b610bc3611359565b610bcc816113b5565b50565b60006001600160e01b031982167f490649060000000000000000000000000000000000000000000000000000000014806103e057506103e08261145e565b6000818152600560205260409020546001600160a01b0316610bcc5760405162461bcd60e51b815260206004820152601860248201527f4552433732313a20696e76616c696420746f6b656e2049440000000000000000604482015260640161052f565b600081815260076020526040902080546001600160a01b0319166001600160a01b0384169081179091558190610ca6826106e9565b6001600160a01b03167f8c5be1e5ebec7d5bd14f71427d1e84f3dd0314c0f7b2291e5b200ac8c7c3b92560405160405180910390a45050565b6000838152600f60209081526040808320546001600160a01b03168084526010909252822054909184848281610d1757610d17612205565b9050602002013590506000600582610d2f919061221b565b905060006005610d3f8386612253565b610d49919061221b565b9050610d5585826114f9565b5050505050505050565b600080610d6b836106e9565b9050806001600160a01b0316846001600160a01b03161480610db257506001600160a01b0380821660009081526008602090815260408083209388168352929052205460ff165b80610dd65750836001600160a01b0316610dcb84610478565b6001600160a01b0316145b949350505050565b826001600160a01b0316610df1826106e9565b6001600160a01b031614610e555760405162461bcd60e51b815260206004820152602560248201527f4552433732313a207472616e736665722066726f6d20696e636f72726563742060448201526437bbb732b960d91b606482015260840161052f565b6001600160a01b038216610ed05760405162461bcd60e51b8152602060048201526024808201527f4552433732313a207472616e7366657220746f20746865207a65726f2061646460448201527f7265737300000000000000000000000000000000000000000000000000000000606482015260840161052f565b610edd83838360016116e7565b826001600160a01b0316610ef0826106e9565b6001600160a01b031614610f545760405162461bcd60e51b815260206004820152602560248201527f4552433732313a207472616e736665722066726f6d20696e636f72726563742060448201526437bbb732b960d91b606482015260840161052f565b600081815260076020908152604080832080546001600160a01b03199081169091556001600160a01b0387811680865260068552838620805460001901905590871680865283862080546001019055868652600590945282852080549092168417909155905184937fddf252ad1be2c89b69c2b068fc378daa952ba7f163c4a11628f55a4df523b3ef91a4505050565b816001600160a01b0316836001600160a01b0316036110455760405162461bcd60e51b815260206004820152601960248201527f4552433732313a20617070726f766520746f2063616c6c657200000000000000604482015260640161052f565b6001600160a01b03838116600081815260086020908152604080832094871680845294825291829020805460ff191686151590811790915591519182527f17307eab39ab6107e8899845ad3d59bd9653f200f220920489ca2b5937696c31910160405180910390a3505050565b600080805b60058110156110f5578381600581106110d2576110d2612205565b60200201516110e19083612253565b9150806110ed81612266565b9150506110b7565b5061110160058261221b565b61110c906001612253565b90507f634fccbf98fc875142862789978822a92147ac902bd85a53dcf58214f3ae33dd8160405161113f91815260200190565b60405180910390a192915050565b60607f92fd13387c7fe7befbc38d303d6468778fb9731bc4583f17d92989c6fcfdeaaa8260405160240161118691511515815260200190565b60408051601f198184030181529190526020810180517bffffffffffffffffffffffffffffffffffffffffffffffffffffffff166001600160e01b03199093169290921790915292915050565b6111de848484610dde565b6111ea84848484611750565b610baa5760405162461bcd60e51b815260206004820152603260248201527f4552433732313a207472616e7366657220746f206e6f6e20455243373231526560448201527131b2b4bb32b91034b6b83632b6b2b73a32b960711b606482015260840161052f565b606061125c82610c0d565b6000828152600960205260408120805461127590612155565b80601f01602080910402602001604051908101604052809291908181526020018280546112a190612155565b80156112ee5780601f106112c3576101008083540402835291602001916112ee565b820191906000526020600020905b8154815290600101906020018083116112d157829003601f168201915b50505050509050600061130c60408051602081019091526000815290565b9050805160000361131e575092915050565b81511561135057808260405160200161133892919061227f565b60405160208183030381529060405292505050919050565b610dd68461189c565b6000546001600160a01b031633146113b35760405162461bcd60e51b815260206004820152601660248201527f4f6e6c792063616c6c61626c65206279206f776e657200000000000000000000604482015260640161052f565b565b336001600160a01b0382160361140d5760405162461bcd60e51b815260206004820152601760248201527f43616e6e6f74207472616e7366657220746f2073656c66000000000000000000604482015260640161052f565b600180546001600160a01b0319166001600160a01b0383811691821790925560008054604051929316917fed8889f560326eb138920d842192f0eb3dd22b4f139c87a2c57538e05bae12789190a350565b60006001600160e01b031982167f80ac58cd0000000000000000000000000000000000000000000000000000000014806114c157506001600160e01b031982167f5b5e139f00000000000000000000000000000000000000000000000000000000145b806103e057507f01ffc9a7000000000000000000000000000000000000000000000000000000006001600160e01b03198316146103e0565b6001600160a01b03821660009081526011602052604090205460ff16156115885760405162461bcd60e51b815260206004820152602660248201527f596f75206861766520616c7265616479206d696e74656420796f757220686f7560448201527f7365204e46540000000000000000000000000000000000000000000000000000606482015260840161052f565b600a546115958382611910565b61164481600b84815481106115ac576115ac612205565b9060005260206000200180546115c190612155565b80601f01602080910402602001604051908101604052809291908181526020018280546115ed90612155565b801561163a5780601f1061160f5761010080835404028352916020019161163a565b820191906000526020600020905b81548152906001019060200180831161161d57829003601f168201915b505050505061192a565b6001600160a01b038316600090815260126020908152604080832085905560139091528120829055600a80546001929061167f908490612253565b90915550506001600160a01b038316600081815260116020908152604091829020805460ff191660011790558151858152908101929092527f769eff512f395b679667e0062a0e31dad5d22dbc7e6b87f16c3de7e85e663460910160405180910390a1505050565b6001600160a01b038416158061170457506001600160a01b038316155b610baa5760405162461bcd60e51b815260206004820152601860248201527f457272212054686973206973206e6f7420616c6c6f7765640000000000000000604482015260640161052f565b60006001600160a01b0384163b1561189157604051630a85bd0160e11b81526001600160a01b0385169063150b7a02906117949033908990889088906004016122ae565b6020604051808303816000875af19250505080156117cf575060408051601f3d908101601f191682019092526117cc918101906122ea565b60015b611877573d8080156117fd576040519150601f19603f3d011682016040523d82523d6000602084013e611802565b606091505b50805160000361186f5760405162461bcd60e51b815260206004820152603260248201527f4552433732313a207472616e7366657220746f206e6f6e20455243373231526560448201527131b2b4bb32b91034b6b83632b6b2b73a32b960711b606482015260840161052f565b805181602001fd5b6001600160e01b031916630a85bd0160e11b149050610dd6565b506001949350505050565b60606118a782610c0d565b60006118be60408051602081019091526000815290565b905060008151116118de5760405180602001604052806000815250611909565b806118e8846119fd565b6040516020016118f992919061227f565b6040516020818303038152906040525b9392505050565b6109d7828260405180602001604052806000815250611a9d565b6000828152600560205260409020546001600160a01b03166119b45760405162461bcd60e51b815260206004820152602e60248201527f45524337323155524953746f726167653a2055524920736574206f66206e6f6e60448201527f6578697374656e7420746f6b656e000000000000000000000000000000000000606482015260840161052f565b60008281526009602052604090206119cc8282612355565b506040518281527ff8e1a15aba9398e019f0b49df1a4fde98ee17ae345cb5f6b5e2c27f5033e8ce790602001610b26565b60606000611a0a83611b1b565b600101905060008167ffffffffffffffff811115611a2a57611a2a611f9d565b6040519080825280601f01601f191660200182016040528015611a54576020820181803683370190505b5090508181016020015b600019017f3031323334353637383961626364656600000000000000000000000000000000600a86061a8153600a8504945084611a5e57509392505050565b611aa78383611bfd565b611ab46000848484611750565b6105ee5760405162461bcd60e51b815260206004820152603260248201527f4552433732313a207472616e7366657220746f206e6f6e20455243373231526560448201527131b2b4bb32b91034b6b83632b6b2b73a32b960711b606482015260840161052f565b6000807a184f03e93ff9f4daa797ed6e38ed64bf6a1f0100000000000000008310611b64577a184f03e93ff9f4daa797ed6e38ed64bf6a1f010000000000000000830492506040015b6d04ee2d6d415b85acef81000000008310611b90576d04ee2d6d415b85acef8100000000830492506020015b662386f26fc100008310611bae57662386f26fc10000830492506010015b6305f5e1008310611bc6576305f5e100830492506008015b6127108310611bda57612710830492506004015b60648310611bec576064830492506002015b600a83106103e05760010192915050565b6001600160a01b038216611c535760405162461bcd60e51b815260206004820181905260248201527f4552433732313a206d696e7420746f20746865207a65726f2061646472657373604482015260640161052f565b6000818152600560205260409020546001600160a01b031615611cb85760405162461bcd60e51b815260206004820152601c60248201527f4552433732313a20746f6b656e20616c7265616479206d696e74656400000000604482015260640161052f565b611cc66000838360016116e7565b6000818152600560205260409020546001600160a01b031615611d2b5760405162461bcd60e51b815260206004820152601c60248201527f4552433732313a20746f6b656e20616c7265616479206d696e74656400000000604482015260640161052f565b6001600160a01b038216600081815260066020908152604080832080546001019055848352600590915280822080546001600160a01b0319168417905551839291907fddf252ad1be2c89b69c2b068fc378daa952ba7f163c4a11628f55a4df523b3ef908290a45050565b6001600160e01b031981168114610bcc57600080fd5b600060208284031215611dbe57600080fd5b813561190981611d96565b60005b83811015611de4578181015183820152602001611dcc565b50506000910152565b60008151808452611e05816020860160208601611dc9565b601f01601f19169290920160200192915050565b6020815260006119096020830184611ded565b600060208284031215611e3e57600080fd5b5035919050565b80356001600160a01b0381168114611e5c57600080fd5b919050565b60008060408385031215611e7457600080fd5b611e7d83611e45565b946020939093013593505050565b600080600060408486031215611ea057600080fd5b83359250602084013567ffffffffffffffff80821115611ebf57600080fd5b818601915086601f830112611ed357600080fd5b813581811115611ee257600080fd5b8760208260051b8501011115611ef757600080fd5b6020830194508093505050509250925092565b600080600060608486031215611f1f57600080fd5b611f2884611e45565b9250611f3660208501611e45565b9150604084013590509250925092565b600060208284031215611f5857600080fd5b61190982611e45565b60008060408385031215611f7457600080fd5b611f7d83611e45565b915060208301358015158114611f9257600080fd5b809150509250929050565b634e487b7160e01b600052604160045260246000fd5b604051601f8201601f1916810167ffffffffffffffff81118282101715611fdc57611fdc611f9d565b604052919050565b600060a08284031215611ff657600080fd5b82601f83011261200557600080fd5b60405160a0810181811067ffffffffffffffff8211171561202857612028611f9d565b6040528060a084018581111561203d57600080fd5b845b8181101561205757803583526020928301920161203f565b509195945050505050565b6000806000806080858703121561207857600080fd5b61208185611e45565b93506020612090818701611e45565b935060408601359250606086013567ffffffffffffffff808211156120b457600080fd5b818801915088601f8301126120c857600080fd5b8135818111156120da576120da611f9d565b6120ec601f8201601f19168501611fb3565b9150808252898482850101111561210257600080fd5b808484018584013760008482840101525080935050505092959194509250565b6000806040838503121561213557600080fd5b61213e83611e45565b915061214c60208401611e45565b90509250929050565b600181811c9082168061216957607f821691505b60208210810361218957634e487b7160e01b600052602260045260246000fd5b50919050565b60208152815160208201526020820151604082015261ffff60408301511660608201526000606083015163ffffffff80821660808501528060808601511660a0850152505060a083015160c080840152610dd660e0840182611ded565b6000602082840312156121fe57600080fd5b5051919050565b634e487b7160e01b600052603260045260246000fd5b60008261223857634e487b7160e01b600052601260045260246000fd5b500690565b634e487b7160e01b600052601160045260246000fd5b808201808211156103e0576103e061223d565b6000600182016122785761227861223d565b5060010190565b60008351612291818460208801611dc9565b8351908301906122a5818360208801611dc9565b01949350505050565b60006001600160a01b038087168352808616602084015250836040830152608060608301526122e06080830184611ded565b9695505050505050565b6000602082840312156122fc57600080fd5b815161190981611d96565b601f8211156105ee57600081815260208120601f850160051c8101602086101561232e5750805b601f850160051c820191505b8181101561234d5782815560010161233a565b505050505050565b815167ffffffffffffffff81111561236f5761236f611f9d565b6123838161237d8454612155565b84612307565b602080601f8311600181146123b857600084156123a05750858301515b600019600386901b1c1916600185901b17855561234d565b600085815260208120601f198616915b828110156123e7578886015182559484019460019091019084016123c8565b50858210156124055787850151600019600388901b60f8161c191681555b5050505050600190811b0190555056fea264697066735822122002f20a3923e6667be00a37df3845c85a4de97aa1da1e564935036ab9ba0acdd264736f6c6343000814003368747470733a2f2f736361726c65742d6c6976652d696775616e612d3735392e6d7970696e6174612e636c6f75642f697066732f516d50486146743535506569646743755865326b616552596d4c61425550453159374b67347444797a61705a487968747470733a2f2f736361726c65742d6c6976652d696775616e612d3735392e6d7970696e6174612e636c6f75642f697066732f516d536e4e586f35687872466e706279426562376a59376a686b6d3565796b6e6143587472386d756b333141484b68747470733a2f2f736361726c65742d6c6976652d696775616e612d3735392e6d7970696e6174612e636c6f75642f697066732f516d4e7034734866346363715070714d4255435347314370467746523444366b674865737863316d4c733735616d68747470733a2f2f736361726c65742d6c6976652d696775616e612d3735392e6d7970696e6174612e636c6f75642f697066732f516d61726b6b6744754255636e716b736174507a5538754e53346f364c54624574754b343350374a797468394e4868747470733a2f2f736361726c65742d6c6976652d696775616e612d3735392e6d7970696e6174612e636c6f75642f697066732f516d50397043394a7555704b636e6a556b384742584557565447764b3346546a584c393151334d4a327268413136",
  "linkReferences": {},
  "deployedLinkReferences": {}
}