{"@api3/airnode-protocol/contracts/rrp/requesters/RrpRequesterV0.sol":{"RrpRequesterV0":{"abi":[{"inputs":[{"internalType":"address","name":"_airnodeRrp","type":"address"}],"stateMutability":"nonpayable","type":"constructor"},{"inputs":[],"name":"airnodeRrp","outputs":[{"internalType":"contract IAirnodeRrpV0","name":"","type":"address"}],"stateMutability":"view","type":"function"}],"evm":{"bytecode":{"linkReferences":{},"object":"60a060405234801561001057600080fd5b5060405161019338038061019383398101604081905261002f91610099565b6001600160a01b0381166080819052604051632b77c09f60e21b81523060048201526001602482015263addf027c90604401600060405180830381600087803b15801561007b57600080fd5b505af115801561008f573d6000803e3d6000fd5b50505050506100c9565b6000602082840312156100ab57600080fd5b81516001600160a01b03811681146100c257600080fd5b9392505050565b60805160b26100e160003960006031015260b26000f3fe6080604052348015600f57600080fd5b506004361060285760003560e01c806371bab66614602d575b600080fd5b60537f000000000000000000000000000000000000000000000000000000000000000081565b60405173ffffffffffffffffffffffffffffffffffffffff909116815260200160405180910390f3fea26469706673582212206b159f2e21d2afeeddf099cc19ac8aec40cab6bbe3203e16644662ec9a53e4dd64736f6c63430008140033","opcodes":"PUSH1 0xA0 PUSH1 0x40 MSTORE CALLVALUE DUP1 ISZERO PUSH2 0x10 JUMPI PUSH1 0x0 DUP1 REVERT JUMPDEST POP PUSH1 0x40 MLOAD PUSH2 0x193 CODESIZE SUB DUP1 PUSH2 0x193 DUP4 CODECOPY DUP2 ADD PUSH1 0x40 DUP2 SWAP1 MSTORE PUSH2 0x2F SWAP2 PUSH2 0x99 JUMP JUMPDEST PUSH1 0x1 PUSH1 0x1 PUSH1 0xA0 SHL SUB DUP2 AND PUSH1 0x80 DUP2 SWAP1 MSTORE PUSH1 0x40 MLOAD PUSH4 0x2B77C09F PUSH1 0xE2 SHL DUP2 MSTORE ADDRESS PUSH1 0x4 DUP3 ADD MSTORE PUSH1 0x1 PUSH1 0x24 DUP3 ADD MSTORE PUSH4 0xADDF027C SWAP1 PUSH1 0x44 ADD PUSH1 0x0 PUSH1 0x40 MLOAD DUP1 DUP4 SUB DUP2 PUSH1 0x0 DUP8 DUP1 EXTCODESIZE ISZERO DUP1 ISZERO PUSH2 0x7B JUMPI PUSH1 0x0 DUP1 REVERT JUMPDEST POP GAS CALL ISZERO DUP1 ISZERO PUSH2 0x8F JUMPI RETURNDATASIZE PUSH1 0x0 DUP1 RETURNDATACOPY RETURNDATASIZE PUSH1 0x0 REVERT JUMPDEST POP POP POP POP POP PUSH2 0xC9 JUMP JUMPDEST PUSH1 0x0 PUSH1 0x20 DUP3 DUP5 SUB SLT ISZERO PUSH2 0xAB JUMPI PUSH1 0x0 DUP1 REVERT JUMPDEST DUP2 MLOAD PUSH1 0x1 PUSH1 0x1 PUSH1 0xA0 SHL SUB DUP2 AND DUP2 EQ PUSH2 0xC2 JUMPI PUSH1 0x0 DUP1 REVERT JUMPDEST SWAP4 SWAP3 POP POP POP JUMP JUMPDEST PUSH1 0x80 MLOAD PUSH1 0xB2 PUSH2 0xE1 PUSH1 0x0 CODECOPY PUSH1 0x0 PUSH1 0x31 ADD MSTORE PUSH1 0xB2 PUSH1 0x0 RETURN INVALID PUSH1 0x80 PUSH1 0x40 MSTORE CALLVALUE DUP1 ISZERO PUSH1 0xF JUMPI PUSH1 0x0 DUP1 REVERT JUMPDEST POP PUSH1 0x4 CALLDATASIZE LT PUSH1 0x28 JUMPI PUSH1 0x0 CALLDATALOAD PUSH1 0xE0 SHR DUP1 PUSH4 0x71BAB666 EQ PUSH1 0x2D JUMPI JUMPDEST PUSH1 0x0 DUP1 REVERT JUMPDEST PUSH1 0x53 PUSH32 0x0 DUP2 JUMP JUMPDEST PUSH1 0x40 MLOAD PUSH20 0xFFFFFFFFFFFFFFFFFFFFFFFFFFFFFFFFFFFFFFFF SWAP1 SWAP2 AND DUP2 MSTORE PUSH1 0x20 ADD PUSH1 0x40 MLOAD DUP1 SWAP2 SUB SWAP1 RETURN INVALID LOG2 PUSH5 0x6970667358 0x22 SLT KECCAK256 PUSH12 0x159F2E21D2AFEEDDF099CC19 0xAC DUP11 0xEC BLOCKHASH 0xCA 0xB6 0xBB 0xE3 KECCAK256 RETURNDATACOPY AND PUSH5 0x4662EC9A53 0xE4 0xDD PUSH5 0x736F6C6343 STOP ADDMOD EQ STOP CALLER "},"methodIdentifiers":{"airnodeRrp()":"71bab666"}}}}}