{
  "_format": "hh-sol-artifact-1",
  "contractName": "RrpRequesterV0",
  "sourceName": "@api3/airnode-protocol/contracts/rrp/requesters/RrpRequesterV0.sol",
  "abi": [
    {
      "inputs": [
        {
          "internalType": "address",
          "name": "_airnodeRrp",
          "type": "address"
        }
      ],
      "stateMutability": "nonpayable",
      "type": "constructor"
    },
    {
      "inputs": [],
      "name": "airnodeRrp",
      "outputs": [
        {
          "internalType": "contract IAirnodeRrpV0",
          "name": "",
          "type": "address"
        }
      ],
      "stateMutability": "view",
      "type": "function"
    }
  ],
  "bytecode": "0x60a060405234801561001057600080fd5b5060405161019338038061019383398101604081905261002f91610099565b6001600160a01b0381166080819052604051632b77c09f60e21b81523060048201526001602482015263addf027c90604401600060405180830381600087803b15801561007b57600080fd5b505af115801561008f573d6000803e3d6000fd5b50505050506100c9565b6000602082840312156100ab57600080fd5b81516001600160a01b03811681146100c257600080fd5b9392505050565b60805160b26100e160003960006031015260b26000f3fe6080604052348015600f57600080fd5b506004361060285760003560e01c806371bab66614602d575b600080fd5b60537f000000000000000000000000000000000000000000000000000000000000000081565b60405173ffffffffffffffffffffffffffffffffffffffff909116815260200160405180910390f3fea26469706673582212206b159f2e21d2afeeddf099cc19ac8aec40cab6bbe3203e16644662ec9a53e4dd64736f6c63430008140033",
  "linkReferences": {},
  "deployedLinkReferences": {}
}