{
  "_format": "hh-sol-artifact-1",
  "contractName": "OnePieceNFT",
  "sourceName": "contracts/OnePieceNFT.sol",
  "abi": [
    {
      "inputs": [],
      "stateMutability": "nonpayable",
      "type": "constructor"
    },
    {
      "anonymous": false,
      "inputs": [
        {
          "indexed": true,
          "internalType": "address",
          "name": "owner",
          "type": "address"
        },
        {
          "indexed": true,
          "internalType": "address",
          "name": "approved",
          "type": "address"
        },
        {
          "indexed": true,
          "internalType": "uint256",
          "name": "tokenId",
          "type": "uint256"
        }
      ],
      "name": "Approval",
      "type": "event"
    },
    {
      "anonymous": false,
      "inputs": [
        {
          "indexed": true,
          "internalType": "address",
          "name": "owner",
          "type": "address"
        },
        {
          "indexed": true,
          "internalType": "address",
          "name": "operator",
          "type": "address"
        },
        {
          "indexed": false,
          "internalType": "bool",
          "name": "approved",
          "type": "bool"
        }
      ],
      "name": "ApprovalForAll",
      "type": "event"
    },
    {
      "anonymous": false,
      "inputs": [
        {
          "indexed": false,
          "internalType": "uint256",
          "name": "_fromTokenId",
          "type": "uint256"
        },
        {
          "indexed": false,
          "internalType": "uint256",
          "name": "_toTokenId",
          "type": "uint256"
        }
      ],
      "name": "BatchMetadataUpdate",
      "type": "event"
    },
    {
      "anonymous": false,
      "inputs": [
        {
          "indexed": false,
          "internalType": "uint256",
          "name": "_tokenId",
          "type": "uint256"
        }
      ],
      "name": "MetadataUpdate",
      "type": "event"
    },
    {
      "anonymous": false,
      "inputs": [
        {
          "indexed": false,
          "internalType": "uint256",
          "name": "characterId",
          "type": "uint256"
        },
        {
          "indexed": false,
          "internalType": "address",
          "name": "minter",
          "type": "address"
        }
      ],
      "name": "NftMinted",
      "type": "event"
    },
    {
      "anonymous": false,
      "inputs": [
        {
          "indexed": true,
          "internalType": "address",
          "name": "previousOwner",
          "type": "address"
        },
        {
          "indexed": true,
          "internalType": "address",
          "name": "newOwner",
          "type": "address"
        }
      ],
      "name": "OwnershipTransferred",
      "type": "event"
    },
    {
      "anonymous": false,
      "inputs": [
        {
          "indexed": true,
          "internalType": "address",
          "name": "from",
          "type": "address"
        },
        {
          "indexed": true,
          "internalType": "address",
          "name": "to",
          "type": "address"
        },
        {
          "indexed": true,
          "internalType": "uint256",
          "name": "tokenId",
          "type": "uint256"
        }
      ],
      "name": "Transfer",
      "type": "event"
    },
    {
      "inputs": [
        {
          "internalType": "address",
          "name": "to",
          "type": "address"
        },
        {
          "internalType": "uint256",
          "name": "tokenId",
          "type": "uint256"
        }
      ],
      "name": "approve",
      "outputs": [],
      "stateMutability": "nonpayable",
      "type": "function"
    },
    {
      "inputs": [
        {
          "internalType": "address",
          "name": "owner",
          "type": "address"
        }
      ],
      "name": "balanceOf",
      "outputs": [
        {
          "internalType": "uint256",
          "name": "",
          "type": "uint256"
        }
      ],
      "stateMutability": "view",
      "type": "function"
    },
    {
      "inputs": [
        {
          "internalType": "uint256",
          "name": "tokenId",
          "type": "uint256"
        }
      ],
      "name": "getApproved",
      "outputs": [
        {
          "internalType": "address",
          "name": "",
          "type": "address"
        }
      ],
      "stateMutability": "view",
      "type": "function"
    },
    {
      "inputs": [
        {
          "internalType": "address",
          "name": "_user",
          "type": "address"
        }
      ],
      "name": "getHouseIndex",
      "outputs": [
        {
          "internalType": "uint256",
          "name": "",
          "type": "uint256"
        }
      ],
      "stateMutability": "view",
      "type": "function"
    },
    {
      "inputs": [
        {
          "internalType": "address",
          "name": "",
          "type": "address"
        }
      ],
      "name": "hasMinted",
      "outputs": [
        {
          "internalType": "bool",
          "name": "",
          "type": "bool"
        }
      ],
      "stateMutability": "view",
      "type": "function"
    },
    {
      "inputs": [
        {
          "internalType": "address",
          "name": "_user",
          "type": "address"
        }
      ],
      "name": "hasMintedNFT",
      "outputs": [
        {
          "internalType": "bool",
          "name": "",
          "type": "bool"
        }
      ],
      "stateMutability": "view",
      "type": "function"
    },
    {
      "inputs": [
        {
          "internalType": "address",
          "name": "owner",
          "type": "address"
        },
        {
          "internalType": "address",
          "name": "operator",
          "type": "address"
        }
      ],
      "name": "isApprovedForAll",
      "outputs": [
        {
          "internalType": "bool",
          "name": "",
          "type": "bool"
        }
      ],
      "stateMutability": "view",
      "type": "function"
    },
    {
      "inputs": [
        {
          "internalType": "address",
          "name": "recipient",
          "type": "address"
        },
        {
          "internalType": "uint256",
          "name": "characterId",
          "type": "uint256"
        }
      ],
      "name": "mintNFT",
      "outputs": [],
      "stateMutability": "nonpayable",
      "type": "function"
    },
    {
      "inputs": [],
      "name": "name",
      "outputs": [
        {
          "internalType": "string",
          "name": "",
          "type": "string"
        }
      ],
      "stateMutability": "view",
      "type": "function"
    },
    {
      "inputs": [],
      "name": "owner",
      "outputs": [
        {
          "internalType": "address",
          "name": "",
          "type": "address"
        }
      ],
      "stateMutability": "view",
      "type": "function"
    },
    {
      "inputs": [
        {
          "internalType": "uint256",
          "name": "tokenId",
          "type": "uint256"
        }
      ],
      "name": "ownerOf",
      "outputs": [
        {
          "internalType": "address",
          "name": "",
          "type": "address"
        }
      ],
      "stateMutability": "view",
      "type": "function"
    },
    {
      "inputs": [],
      "name": "renounceOwnership",
      "outputs": [],
      "stateMutability": "nonpayable",
      "type": "function"
    },
    {
      "inputs": [
        {
          "internalType": "address",
          "name": "",
          "type": "address"
        }
      ],
      "name": "s_addressToCharacter",
      "outputs": [
        {
          "internalType": "uint256",
          "name": "",
          "type": "uint256"
        }
      ],
      "stateMutability": "view",
      "type": "function"
    },
    {
      "inputs": [
        {
          "internalType": "uint256",
          "name": "",
          "type": "uint256"
        }
      ],
      "name": "s_requestIdToSender",
      "outputs": [
        {
          "internalType": "address",
          "name": "",
          "type": "address"
        }
      ],
      "stateMutability": "view",
      "type": "function"
    },
    {
      "inputs": [
        {
          "internalType": "address",
          "name": "from",
          "type": "address"
        },
        {
          "internalType": "address",
          "name": "to",
          "type": "address"
        },
        {
          "internalType": "uint256",
          "name": "tokenId",
          "type": "uint256"
        }
      ],
      "name": "safeTransferFrom",
      "outputs": [],
      "stateMutability": "nonpayable",
      "type": "function"
    },
    {
      "inputs": [
        {
          "internalType": "address",
          "name": "from",
          "type": "address"
        },
        {
          "internalType": "address",
          "name": "to",
          "type": "address"
        },
        {
          "internalType": "uint256",
          "name": "tokenId",
          "type": "uint256"
        },
        {
          "internalType": "bytes",
          "name": "data",
          "type": "bytes"
        }
      ],
      "name": "safeTransferFrom",
      "outputs": [],
      "stateMutability": "nonpayable",
      "type": "function"
    },
    {
      "inputs": [
        {
          "internalType": "address",
          "name": "operator",
          "type": "address"
        },
        {
          "internalType": "bool",
          "name": "approved",
          "type": "bool"
        }
      ],
      "name": "setApprovalForAll",
      "outputs": [],
      "stateMutability": "nonpayable",
      "type": "function"
    },
    {
      "inputs": [
        {
          "internalType": "bytes4",
          "name": "interfaceId",
          "type": "bytes4"
        }
      ],
      "name": "supportsInterface",
      "outputs": [
        {
          "internalType": "bool",
          "name": "",
          "type": "bool"
        }
      ],
      "stateMutability": "view",
      "type": "function"
    },
    {
      "inputs": [],
      "name": "symbol",
      "outputs": [
        {
          "internalType": "string",
          "name": "",
          "type": "string"
        }
      ],
      "stateMutability": "view",
      "type": "function"
    },
    {
      "inputs": [
        {
          "internalType": "uint256",
          "name": "tokenId",
          "type": "uint256"
        }
      ],
      "name": "tokenURI",
      "outputs": [
        {
          "internalType": "string",
          "name": "",
          "type": "string"
        }
      ],
      "stateMutability": "view",
      "type": "function"
    },
    {
      "inputs": [
        {
          "internalType": "address",
          "name": "from",
          "type": "address"
        },
        {
          "internalType": "address",
          "name": "to",
          "type": "address"
        },
        {
          "internalType": "uint256",
          "name": "tokenId",
          "type": "uint256"
        }
      ],
      "name": "transferFrom",
      "outputs": [],
      "stateMutability": "nonpayable",
      "type": "function"
    },
    {
      "inputs": [
        {
          "internalType": "address",
          "name": "newOwner",
          "type": "address"
        }
      ],
      "name": "transferOwnership",
      "outputs": [],
      "stateMutability": "nonpayable",
      "type": "function"
    }
  ],
  "bytecode": "0x61028060405260626101e0818152608091829190620023206102003981526020016040518060a00160405280606281526020016200225c6062913981526020016040518060a0016040528060628152602001620023826062913981526020016040518060a0016040528060628152602001620022be6062913981526020016040518060a0016040528060628152602001620022be6062913981526020016040518060a00160405280606281526020016200225c6062913981526020016040518060a0016040528060628152602001620023826062913981526020016040518060a0016040528060628152602001620022be6062913981526020016040518060a00160405280606281526020016200225c6062913981526020016040518060a0016040528060628152602001620023826062913981526020016040518060a0016040528060628152602001620022be6062913990526200016390600c90600b62000251565b503480156200017157600080fd5b506040518060400160405280600c81526020016b13db99541a5958d94813919560a21b8152506040518060400160405280600381526020016227a82760e91b8152508160009081620001c49190620003cd565b506001620001d38282620003cd565b505050620001f0620001ea620001fb60201b60201c565b620001ff565b6000600b5562000499565b3390565b600780546001600160a01b038381166001600160a01b0319831681179093556040519116919082907f8be0079c531659141344cd1fd0a4f28419497f9722a3daafe3b4186f6b6457e090600090a35050565b8280548282559060005260206000209081019282156200029c579160200282015b828111156200029c57825182906200028b9082620003cd565b509160200191906001019062000272565b50620002aa929150620002ae565b5090565b80821115620002aa576000620002c58282620002cf565b50600101620002ae565b508054620002dd906200033e565b6000825580601f10620002ee575050565b601f0160209004906000526020600020908101906200030e919062000311565b50565b5b80821115620002aa576000815560010162000312565b634e487b7160e01b600052604160045260246000fd5b600181811c908216806200035357607f821691505b6020821081036200037457634e487b7160e01b600052602260045260246000fd5b50919050565b601f821115620003c857600081815260208120601f850160051c81016020861015620003a35750805b601f850160051c820191505b81811015620003c457828155600101620003af565b5050505b505050565b81516001600160401b03811115620003e957620003e962000328565b6200040181620003fa84546200033e565b846200037a565b602080601f831160018114620004395760008415620004205750858301515b600019600386901b1c1916600185901b178555620003c4565b600085815260208120601f198616915b828110156200046a5788860151825594840194600190910190840162000449565b5085821015620004895787850151600019600388901b60f8161c191681555b5050505050600190811b01905550565b611db380620004a96000396000f3fe608060405234801561001057600080fd5b50600436106101825760003560e01c806370a08231116100d8578063a36f573b1161008c578063e28cb25a11610066578063e28cb25a14610360578063e985e9c51461038c578063f2fde38b146103c857600080fd5b8063a36f573b14610311578063b88d4fde1461033a578063c87b56dd1461034d57600080fd5b80638da5cb5b116100bd5780638da5cb5b146102e557806395d89b41146102f6578063a22cb465146102fe57600080fd5b806370a08231146102ca578063715018a6146102dd57600080fd5b806338e21cce1161013a5780634a4b36c2116101145780634a4b36c2146102605780636352211e14610297578063683305d4146102aa57600080fd5b806338e21cce146102175780633c168eab1461023a57806342842e0e1461024d57600080fd5b8063081812fc1161016b578063081812fc146101c4578063095ea7b3146101ef57806323b872dd1461020457600080fd5b806301ffc9a71461018757806306fdde03146101af575b600080fd5b61019a6101953660046118df565b6103db565b60405190151581526020015b60405180910390f35b6101b761041f565b6040516101a6919061194c565b6101d76101d236600461195f565b6104b1565b6040516001600160a01b0390911681526020016101a6565b6102026101fd366004611994565b6104d8565b005b6102026102123660046119be565b61062c565b61019a6102253660046119fa565b600a6020526000908152604090205460ff1681565b610202610248366004611994565b6106a3565b61020261025b3660046119be565b61088c565b61028961026e3660046119fa565b6001600160a01b031660009081526009602052604090205490565b6040519081526020016101a6565b6101d76102a536600461195f565b6108a7565b6102896102b83660046119fa565b60096020526000908152604090205481565b6102896102d83660046119fa565b61090c565b6102026109a6565b6007546001600160a01b03166101d7565b6101b76109ba565b61020261030c366004611a15565b6109c9565b6101d761031f36600461195f565b6008602052600090815260409020546001600160a01b031681565b610202610348366004611a67565b6109d8565b6101b761035b36600461195f565b610a56565b61019a61036e3660046119fa565b6001600160a01b03166000908152600a602052604090205460ff1690565b61019a61039a366004611b43565b6001600160a01b03918216600090815260056020908152604080832093909416825291909152205460ff1690565b6102026103d63660046119fa565b610b66565b60006001600160e01b031982167f49064906000000000000000000000000000000000000000000000000000000001480610419575061041982610bf6565b92915050565b60606000805461042e90611b76565b80601f016020809104026020016040519081016040528092919081815260200182805461045a90611b76565b80156104a75780601f1061047c576101008083540402835291602001916104a7565b820191906000526020600020905b81548152906001019060200180831161048a57829003601f168201915b5050505050905090565b60006104bc82610c91565b506000908152600460205260409020546001600160a01b031690565b60006104e3826108a7565b9050806001600160a01b0316836001600160a01b0316036105715760405162461bcd60e51b815260206004820152602160248201527f4552433732313a20617070726f76616c20746f2063757272656e74206f776e6560448201527f720000000000000000000000000000000000000000000000000000000000000060648201526084015b60405180910390fd5b336001600160a01b03821614806105ab57506001600160a01b038116600090815260056020908152604080832033845290915290205460ff165b61061d5760405162461bcd60e51b815260206004820152603d60248201527f4552433732313a20617070726f76652063616c6c6572206973206e6f7420746f60448201527f6b656e206f776e6572206f7220617070726f76656420666f7220616c6c0000006064820152608401610568565b6106278383610cf5565b505050565b6106363382610d70565b6106985760405162461bcd60e51b815260206004820152602d60248201527f4552433732313a2063616c6c6572206973206e6f7420746f6b656e206f776e6560448201526c1c881bdc88185c1c1c9bdd9959609a1b6064820152608401610568565b610627838383610dee565b6106ab611001565b6001600160a01b0382166000908152600a602052604090205460ff161561073a5760405162461bcd60e51b815260206004820152602660248201527f596f75206861766520616c7265616479206d696e74656420796f757220686f7560448201527f7365204e465400000000000000000000000000000000000000000000000000006064820152608401610568565b600b54610747838261105b565b6107f681600c848154811061075e5761075e611bb0565b90600052602060002001805461077390611b76565b80601f016020809104026020016040519081016040528092919081815260200182805461079f90611b76565b80156107ec5780601f106107c1576101008083540402835291602001916107ec565b820191906000526020600020905b8154815290600101906020018083116107cf57829003601f168201915b5050505050611075565b6001600160a01b0383166000908152600960205260408120839055600b805460019290610824908490611bc6565b90915550506001600160a01b0383166000818152600a6020908152604091829020805460ff191660011790558151858152908101929092527f769eff512f395b679667e0062a0e31dad5d22dbc7e6b87f16c3de7e85e663460910160405180910390a1505050565b610627838383604051806020016040528060008152506109d8565b6000818152600260205260408120546001600160a01b0316806104195760405162461bcd60e51b815260206004820152601860248201527f4552433732313a20696e76616c696420746f6b656e20494400000000000000006044820152606401610568565b60006001600160a01b03821661098a5760405162461bcd60e51b815260206004820152602960248201527f4552433732313a2061646472657373207a65726f206973206e6f74206120766160448201527f6c6964206f776e657200000000000000000000000000000000000000000000006064820152608401610568565b506001600160a01b031660009081526003602052604090205490565b6109ae611001565b6109b8600061114f565b565b60606001805461042e90611b76565b6109d43383836111ae565b5050565b6109e23383610d70565b610a445760405162461bcd60e51b815260206004820152602d60248201527f4552433732313a2063616c6c6572206973206e6f7420746f6b656e206f776e6560448201526c1c881bdc88185c1c1c9bdd9959609a1b6064820152608401610568565b610a508484848461127c565b50505050565b6060610a6182610c91565b60008281526006602052604081208054610a7a90611b76565b80601f0160208091040260200160405190810160405280929190818152602001828054610aa690611b76565b8015610af35780601f10610ac857610100808354040283529160200191610af3565b820191906000526020600020905b815481529060010190602001808311610ad657829003601f168201915b505050505090506000610b1160408051602081019091526000815290565b90508051600003610b23575092915050565b815115610b55578082604051602001610b3d929190611be7565b60405160208183030381529060405292505050919050565b610b5e846112fa565b949350505050565b610b6e611001565b6001600160a01b038116610bea5760405162461bcd60e51b815260206004820152602660248201527f4f776e61626c653a206e6577206f776e657220697320746865207a65726f206160448201527f64647265737300000000000000000000000000000000000000000000000000006064820152608401610568565b610bf38161114f565b50565b60006001600160e01b031982167f80ac58cd000000000000000000000000000000000000000000000000000000001480610c5957506001600160e01b031982167f5b5e139f00000000000000000000000000000000000000000000000000000000145b8061041957507f01ffc9a7000000000000000000000000000000000000000000000000000000006001600160e01b0319831614610419565b6000818152600260205260409020546001600160a01b0316610bf35760405162461bcd60e51b815260206004820152601860248201527f4552433732313a20696e76616c696420746f6b656e20494400000000000000006044820152606401610568565b6000818152600460205260409020805473ffffffffffffffffffffffffffffffffffffffff19166001600160a01b0384169081179091558190610d37826108a7565b6001600160a01b03167f8c5be1e5ebec7d5bd14f71427d1e84f3dd0314c0f7b2291e5b200ac8c7c3b92560405160405180910390a45050565b600080610d7c836108a7565b9050806001600160a01b0316846001600160a01b03161480610dc357506001600160a01b0380821660009081526005602090815260408083209388168352929052205460ff165b80610b5e5750836001600160a01b0316610ddc846104b1565b6001600160a01b031614949350505050565b826001600160a01b0316610e01826108a7565b6001600160a01b031614610e655760405162461bcd60e51b815260206004820152602560248201527f4552433732313a207472616e736665722066726f6d20696e636f72726563742060448201526437bbb732b960d91b6064820152608401610568565b6001600160a01b038216610ee05760405162461bcd60e51b8152602060048201526024808201527f4552433732313a207472616e7366657220746f20746865207a65726f2061646460448201527f72657373000000000000000000000000000000000000000000000000000000006064820152608401610568565b610eed838383600161136e565b826001600160a01b0316610f00826108a7565b6001600160a01b031614610f645760405162461bcd60e51b815260206004820152602560248201527f4552433732313a207472616e736665722066726f6d20696e636f72726563742060448201526437bbb732b960d91b6064820152608401610568565b6000818152600460209081526040808320805473ffffffffffffffffffffffffffffffffffffffff199081169091556001600160a01b0387811680865260038552838620805460001901905590871680865283862080546001019055868652600290945282852080549092168417909155905184937fddf252ad1be2c89b69c2b068fc378daa952ba7f163c4a11628f55a4df523b3ef91a4505050565b6007546001600160a01b031633146109b85760405162461bcd60e51b815260206004820181905260248201527f4f776e61626c653a2063616c6c6572206973206e6f7420746865206f776e65726044820152606401610568565b6109d48282604051806020016040528060008152506113d7565b6000828152600260205260409020546001600160a01b03166110ff5760405162461bcd60e51b815260206004820152602e60248201527f45524337323155524953746f726167653a2055524920736574206f66206e6f6e60448201527f6578697374656e7420746f6b656e0000000000000000000000000000000000006064820152608401610568565b60008281526006602052604090206111178282611c64565b506040518281527ff8e1a15aba9398e019f0b49df1a4fde98ee17ae345cb5f6b5e2c27f5033e8ce79060200160405180910390a15050565b600780546001600160a01b0383811673ffffffffffffffffffffffffffffffffffffffff19831681179093556040519116919082907f8be0079c531659141344cd1fd0a4f28419497f9722a3daafe3b4186f6b6457e090600090a35050565b816001600160a01b0316836001600160a01b03160361120f5760405162461bcd60e51b815260206004820152601960248201527f4552433732313a20617070726f766520746f2063616c6c6572000000000000006044820152606401610568565b6001600160a01b03838116600081815260056020908152604080832094871680845294825291829020805460ff191686151590811790915591519182527f17307eab39ab6107e8899845ad3d59bd9653f200f220920489ca2b5937696c31910160405180910390a3505050565b611287848484610dee565b61129384848484611455565b610a505760405162461bcd60e51b815260206004820152603260248201527f4552433732313a207472616e7366657220746f206e6f6e20455243373231526560448201527131b2b4bb32b91034b6b83632b6b2b73a32b960711b6064820152608401610568565b606061130582610c91565b600061131c60408051602081019091526000815290565b9050600081511161133c5760405180602001604052806000815250611367565b80611346846115a1565b604051602001611357929190611be7565b6040516020818303038152906040525b9392505050565b6001600160a01b038416158061138b57506001600160a01b038316155b610a505760405162461bcd60e51b815260206004820152601860248201527f457272212054686973206973206e6f7420616c6c6f77656400000000000000006044820152606401610568565b6113e18383611641565b6113ee6000848484611455565b6106275760405162461bcd60e51b815260206004820152603260248201527f4552433732313a207472616e7366657220746f206e6f6e20455243373231526560448201527131b2b4bb32b91034b6b83632b6b2b73a32b960711b6064820152608401610568565b60006001600160a01b0384163b1561159657604051630a85bd0160e11b81526001600160a01b0385169063150b7a0290611499903390899088908890600401611d24565b6020604051808303816000875af19250505080156114d4575060408051601f3d908101601f191682019092526114d191810190611d60565b60015b61157c573d808015611502576040519150601f19603f3d011682016040523d82523d6000602084013e611507565b606091505b5080516000036115745760405162461bcd60e51b815260206004820152603260248201527f4552433732313a207472616e7366657220746f206e6f6e20455243373231526560448201527131b2b4bb32b91034b6b83632b6b2b73a32b960711b6064820152608401610568565b805181602001fd5b6001600160e01b031916630a85bd0160e11b149050610b5e565b506001949350505050565b606060006115ae836117e7565b600101905060008167ffffffffffffffff8111156115ce576115ce611a51565b6040519080825280601f01601f1916602001820160405280156115f8576020820181803683370190505b5090508181016020015b600019017f3031323334353637383961626364656600000000000000000000000000000000600a86061a8153600a850494508461160257509392505050565b6001600160a01b0382166116975760405162461bcd60e51b815260206004820181905260248201527f4552433732313a206d696e7420746f20746865207a65726f20616464726573736044820152606401610568565b6000818152600260205260409020546001600160a01b0316156116fc5760405162461bcd60e51b815260206004820152601c60248201527f4552433732313a20746f6b656e20616c7265616479206d696e746564000000006044820152606401610568565b61170a60008383600161136e565b6000818152600260205260409020546001600160a01b03161561176f5760405162461bcd60e51b815260206004820152601c60248201527f4552433732313a20746f6b656e20616c7265616479206d696e746564000000006044820152606401610568565b6001600160a01b0382166000818152600360209081526040808320805460010190558483526002909152808220805473ffffffffffffffffffffffffffffffffffffffff19168417905551839291907fddf252ad1be2c89b69c2b068fc378daa952ba7f163c4a11628f55a4df523b3ef908290a45050565b6000807a184f03e93ff9f4daa797ed6e38ed64bf6a1f0100000000000000008310611830577a184f03e93ff9f4daa797ed6e38ed64bf6a1f010000000000000000830492506040015b6d04ee2d6d415b85acef8100000000831061185c576d04ee2d6d415b85acef8100000000830492506020015b662386f26fc10000831061187a57662386f26fc10000830492506010015b6305f5e1008310611892576305f5e100830492506008015b61271083106118a657612710830492506004015b606483106118b8576064830492506002015b600a83106104195760010192915050565b6001600160e01b031981168114610bf357600080fd5b6000602082840312156118f157600080fd5b8135611367816118c9565b60005b838110156119175781810151838201526020016118ff565b50506000910152565b600081518084526119388160208601602086016118fc565b601f01601f19169290920160200192915050565b6020815260006113676020830184611920565b60006020828403121561197157600080fd5b5035919050565b80356001600160a01b038116811461198f57600080fd5b919050565b600080604083850312156119a757600080fd5b6119b083611978565b946020939093013593505050565b6000806000606084860312156119d357600080fd5b6119dc84611978565b92506119ea60208501611978565b9150604084013590509250925092565b600060208284031215611a0c57600080fd5b61136782611978565b60008060408385031215611a2857600080fd5b611a3183611978565b915060208301358015158114611a4657600080fd5b809150509250929050565b634e487b7160e01b600052604160045260246000fd5b60008060008060808587031215611a7d57600080fd5b611a8685611978565b9350611a9460208601611978565b925060408501359150606085013567ffffffffffffffff80821115611ab857600080fd5b818701915087601f830112611acc57600080fd5b813581811115611ade57611ade611a51565b604051601f8201601f19908116603f01168101908382118183101715611b0657611b06611a51565b816040528281528a6020848701011115611b1f57600080fd5b82602086016020830137600060208483010152809550505050505092959194509250565b60008060408385031215611b5657600080fd5b611b5f83611978565b9150611b6d60208401611978565b90509250929050565b600181811c90821680611b8a57607f821691505b602082108103611baa57634e487b7160e01b600052602260045260246000fd5b50919050565b634e487b7160e01b600052603260045260246000fd5b8082018082111561041957634e487b7160e01b600052601160045260246000fd5b60008351611bf98184602088016118fc565b835190830190611c0d8183602088016118fc565b01949350505050565b601f82111561062757600081815260208120601f850160051c81016020861015611c3d5750805b601f850160051c820191505b81811015611c5c57828155600101611c49565b505050505050565b815167ffffffffffffffff811115611c7e57611c7e611a51565b611c9281611c8c8454611b76565b84611c16565b602080601f831160018114611cc75760008415611caf5750858301515b600019600386901b1c1916600185901b178555611c5c565b600085815260208120601f198616915b82811015611cf657888601518255948401946001909101908401611cd7565b5085821015611d145787850151600019600388901b60f8161c191681555b5050505050600190811b01905550565b60006001600160a01b03808716835280861660208401525083604083015260806060830152611d566080830184611920565b9695505050505050565b600060208284031215611d7257600080fd5b8151611367816118c956fea264697066735822122099d545be36c14af250c37bb978d8b6e47e28a826a51b01b2dad0c1edad16bfb864736f6c6343000814003368747470733a2f2f736361726c65742d6c6976652d696775616e612d3735392e6d7970696e6174612e636c6f75642f697066732f516d50486146743535506569646743755865326b616552596d4c61425550453159374b67347444797a61705a487968747470733a2f2f736361726c65742d6c6976652d696775616e612d3735392e6d7970696e6174612e636c6f75642f697066732f516d536e4e586f35687872466e706279426562376a59376a686b6d3565796b6e6143587472386d756b333141484b68747470733a2f2f736361726c65742d6c6976652d696775616e612d3735392e6d7970696e6174612e636c6f75642f697066732f516d4e7034734866346363715070714d4255435347314370467746523444366b674865737863316d4c733735616d68747470733a2f2f736361726c65742d6c6976652d696775616e612d3735392e6d7970696e6174612e636c6f75642f697066732f516d50397043394a7555704b636e6a556b384742584557565447764b3346546a584c393151334d4a327268413136",
  "linkReferences": {},
  "deployedLinkReferences": {}
}